:020000040808EA
:1000000000000808402D0808000006000A0005014D
:0800100004027E05000000005F
:04001800902708081D
:10001C0009480A4908B5884205D0094A824202D0EB
:10002C00121A01F081FF0748074A0021121A01F049
:10003C0086FF064808BD00BF00000020542C0808AD
:10004C00C4000020C400002078070020780700209E
:10005C0070B500F08DFE074B074C1E46E41AA40841
:10006C000025A54204D056F8253098470135F8E70D
:10007C0070BD00BF142C0808482C080800F014B8F8
:10008C0008B500F099F8BDE8084000F033BE00F068
:10009C004FBB00F055BB0078B0FA80F040097047B8
:1000AC00012303707047000038B501F011FA104DB0
:1000BC004FF4165101F0F2F90E4C0221042001F01C
:1000CC0037FC2888012101F033FC0121208801F044
:1000DC002FFC00F08DFD084B00211860288801F0E2
:1000EC0038FC20880021BDE8384001F032BC00BF4C
:1000FC00EC00002000000020E400002010B5144C9F
:10010C0000231A461946606800F0AAFA00231A4622
:10011C001946606800F084FA00221146606800F00D
:10012C0097FA68B10A4B00221146586800F090FA11
:10013C0000F0CEFA00F0DCFA28B900F0C1FAF9E7C9
:10014C0000F0BEFAE8E7BDE8104000F0D1BA00BFFD
:10015C000405002010B500F0C3FA00F0C9FA0446FB
:10016C0050B900F0C5FA0648234622462146BDE8A0
:10017C001040406800F07CBA00F0A2FAEDE700BF36
:10018C000405002010B50A4B1B68012B0FD0094C3D
:10019C004FF4C87023680133236000F03DFD01F07B
:1001AC0097F921680A22BDE8104000F08ABC10BD06
:1001BC00E8000020D80000202DE9F04186B000F0C6
:1001CC0017FD474E474C3060042001F0DBFB464BDB
:1001DC002268464D18603368B0469B1A2A682F4631
:1001EC0093425ED3424D434E2B681BB14249434868
:1001FC0001F0D6FE0A22316802A800F0B4FB029985
:10020C003E4801F0CDFE02A800F055FB01F060F96C
:10021C003B4900F0E1FB01F05BF9384900F0EFFBE2
:10022C0001F056F90A22216800F01FFC002232600E
:10023C00D8F8002039682260324A2B6812680133E2
:10024C00B2FBF1F293422B6047D3FFF757FF2E4BD3
:10025C002A4A1B782D498DF8003002A83C2300F067
:10026C00F5FE039C7CB16368013B63605BB923685A
:10027C0020469B689847A368013BA3601BB9236881
:10028C002046DB68984701F023F9214900F0B7FBC1
:10029C0020491A4801F09DFE1F4A00232B60136071
:1002AC001BE01D4C2668B6B9FFF754FF01F010F99E
:1002BC001A4900F0A4FB01F00BF9164900F09FFB62
:1002CC002A68174B3C211B684A4302A8314600F0B0
:1002DC007FFA01232360FFF755FF06B0BDE8F081DC
:1002EC00C8000020E4000020E800002004000020EA
:1002FC00CC000020D8000020A4270808F000002023
:10030C00A627080808000020D6000020AF27080800
:10031C00BF2708088E280808DC000020CC27080816
:10032C00E0000020094B10B500241C60084B012292
:10033C001A7000F011F84FF6FF72064B03201C7078
:10034C005C809A80BDE8104000F026B9E0000020E7
:10035C00D6000020D000002008B5024B1B681B689B
:10036C00019308BDB001040808B5024B1B689B68DB
:10037C00019308BDB001040808B5024B1B68DB688B
:10038C00019308BDB001040808B5024B1B681B693A
:10039C00019308BDB001040808B5024B1B685B69EA
:1003AC00019308BDB001040808B5024B1B68DB695A
:1003BC00019308BDB401040808B5024B1B681B6A05
:1003CC00019308BDB401040808B5024B1B685B68B7
:1003DC00019308BD9C01040808B5024B1B685B69BE
:1003EC00019308BD9C01040808B5024B1B68DB692E
:1003FC00019308BD9C01040808B5024B1B689B6D5A
:10040C00019308BD9C01040808B5024B1B681B6BCB
:10041C00019308BDD001040808B5024B1B689B6909
:10042C00019308BDC401040808B5024B1B685B6A44
:10043C00019308BDC401040808B5024B1B689B6AF4
:10044C00019308BDC401040808B5024B1B68DB6AA4
:10045C00019308BDC401040808B5024B1B681B6B53
:10046C00019308BDC401040808B5024B1B685B6B03
:10047C00019308BDC401040808B5024B1B689B6BB3
:10048C00019308BDC401040808B5024B1B681B6C22
:10049C00019308BDC401040808B5024B1B681B6A14
:1004AC00019308BDAC01040808B5024B1B685B6ADC
:1004BC00019308BDAC01040808B5024B1B689B6A8C
:1004CC00019308BDAC01040808B5024B1B68DB6A3C
:1004DC00019308BDAC01040808B5024B1B681B6BEB
:1004EC00019308BDAC01040808B5024B1B685B6B9B
:1004FC00019308BDAC01040808B5024B1B681B6CCA
:10050C00019308BDAC01040808B5024B1B68DB6BFA
:10051C00019308BD2000060808B5024B1B681B6838
:10052C00019308BD1C00060808B5024B1B685B68EC
:10053C00019308BD1C00060808B5024B1B681B691B
:10054C00019308BD1C00060808B5024B1B685B69CB
:10055C00019308BD1C00060808B5024B1B689B697B
:10056C00019308BD1C00060808B5024B1B68DB692B
:10057C00019308BD1C00060808B5024B1B681B6ADA
:10058C00019308BD1C00060808B5024B1B681B68CC
:10059C00019308BDA401040808B5024B1B685B68F5
:1005AC00019308BDA401040808B5024B1B685B69E4
:1005BC00019308BDA401040808B5024B1B689B6994
:1005CC00019308BDA401040808B5024B1B68DB6C41
:1005DC00019308BDA401040808B5024B1B685B6DB0
:1005EC00019308BDA401040808B5024B1B689B6D60
:1005FC00019308BDA401040808B5034B1B68D3F88C
:10060C009030019308BD0000A401040808B5034B09
:10061C001B68D3F89C30019308BD0000A4010408AA
:10062C0008B5024B1B685B68019308BDC801040840
:10063C0008B5024B1B689B68019308BDC8010408F0
:10064C0008B5024B1B68DB68019308BDC8010408A0
:10065C0008B5024B1B681B69019308BDC80104084F
:10066C0008B5024B1B685B69019308BDC8010408FF
:10067C0008B5024B1B689B69019308BDC8010408AF
:10068C0008B5024B1B68DB69019308BDC80104085F
:10069C0008B5024B1B681B6A019308BDC80104080E
:1006AC0008B5024B1B681B6B019308BDC8010408FD
:1006BC0008B5024B1B685B6B019308BDC8010408AD
:1006CC0008B5024B1B689B68019308BDCC0104085C
:1006DC0008B5024B1B68DB68019308BDCC0104080C
:1006EC0008B5024B1B681B69019308BDCC010408BB
:1006FC0008B5024B1B685B69019308BDCC0104086B
:10070C0008B5024B1B681B6A019308BDCC01040899
:10071C0008B5024B1B681B6B019308BDCC01040888
:10072C0008B5024B1B68DB6B019308BDCC010408B8
:10073C0008B5024B1B681B68019308BDA001040897
:10074C0008B5024B1B685B68019308BDA001040847
:10075C0008B5024B1B689B68019308BDA0010408F7
:10076C0008B5024B1B689B69019308BDA0010408E6
:10077C0008B5024B1B68DB6A019308BDA001040895
:10078C0008B5024B1B681B6B019308BDA001040844
:10079C00704710B50446102101F073F9204610BDC6
:1007AC0070B504460E46074B0025036040F80C5FFD
:1007BC00FFF72AFE30462671FFF7F6FDA5602046AE
:1007CC0070BD00BFDC2708080079FFF7F5BD0000FD
:1007DC0010B50446084611461A460023FFF7ECFEF6
:1007EC00064B00221A704FF6FF7258809A801A68D6
:1007FC009B882260A380204610BD00BF70010020A2
:10080C004FF6FF72034B0020187058809A80FFF748
:10081C00C3BE00BF7001002010B5044601F0FDFB03
:10082C00013823182046984206D20278197800F82D
:10083C00011B03F80129F6E710BD70B50C46911E9B
:10084C00222920D82546294610B9234430220EE00F
:10085C00B0FBF2F602FB1600C1B2092805F8011B29
:10086C0094BF3031573105F8011C3046EBE7994203
:10087C0002D201F8012BFAE7002320460B70FFF798
:10088C00CBFF204670BD002070BD38B5031E0C4652
:10089C0015460BDAB3F1004F4FF02D0214BF58423E
:1008AC00184601230A702A46194400E00123FFF779
:1008BC00C4FF204638BD10B504460068FFF740FF62
:1008CC00204610BD10B50446006808B1FFF738FF8C
:1008DC0000232360A360636010BD38B504460D4649
:1008EC0000680131FFF734FF10B184E821000120CA
:1008FC0038BD10B50368044613B143688B4207D268
:10090C002046FFF7EAFF20B1A3680BB922681370E9
:10091C00012010BD70B50E46114604461546FFF772
:10092C00E8FF18B92046FFF7CDFF09E02A4631460B
:10093C00A560206801F0F8FA2268A3680021D15460
:10094C00204670BD38B505460C4641B1084601F04D
:10095C0064FB214602462846FFF7DCFF01E0FFF767
:10096C00B1FF284638BD10B5044600238AB0236079
:10097C006360A3602373084601A9FFF786FF01A9F2
:10098C002046FFF7DFFF20460AB010BDF8B506463B
:10099C000D468F180024BD420CD0336815F8011B8E
:1009AC009B6830469847002801DB0444F3E7002C91
:1009BC0008BF04462046F8BD70B505460C460846EF
:1009CC0049B101F02AFB2B68024621462846BDE8B6
:1009DC007040DB68184770BD08B5FFF7EDFF08BD28
:1009EC0003689B68184738B50D210546FFF7F8FFDB
:1009FC000A2104462846FFF7F3FF204438BD38B5DA
:100A0C000546FFF7D9FF04462846FFF7ECFF2044C4
:100A1C0038BD012A98BF0A2230B50B468BB0002195
:100A2C008DF824100DF12304B3FBF2F505FB123302
:100A3C00DBB2092B94BF30333733DBB2214604F8D9
:100A4C0001392B46002DEFD1FFF7B6FF0BB030BDAF
:100A5C0010B422B90368C9B29B6810BC1847D2B253
:100A6C0010BCFFF7D6BFFFF7F3BF38B50546FFF74D
:100A7C00EFFF04462846FFF7B6FF204438BD2DE9AA
:100A8C00F04107460E4615462AB9BDE8F041036809
:100A9C00C9B29B6818470A2A02D1002901DA04E07E
:100AAC00D2B2BDE8F041FFF7B4BF2D21FFF798FF9C
:100ABC002A46044671423846FFF7ABFF2044BDE896
:100ACC00F08138B50546FFF7DAFF04462846FFF7F4
:100ADC008AFF204438BD38B5046805467CB163688C
:100AEC00013B63605BB9236820469B689847A36809
:100AFC00013BA3601BB923682046DB689847284656
:100B0C0038BD0B68036013B15A6801325A607047E4
:100B1C00014A024B1A6070475A28080878010020D5
:100B2C00F0B5144B144F1E68144B064418683B6800
:100B3C0006449E428BB01BD00AA840F8286D01F0E9
:100B4C00FBF80446436901AD03F26C7343610FCCAF
:100B5C000FC50FCC0FC5D4F800E0094CC5F800E068
:100B6C0001AD0FCD0FC40FCD0FC43E60C4F800E033
:100B7C000BB0F0BDAC010020A8010020A4010020A6
:100B8C007C01002008B50020FFF7C2FD28B1FFF75B
:100B9C00AFFD80F00100C0B208BD012008BD10B54A
:100BAC000020FFF729FC044668B9FFF7EDFC01288B
:100BBC000BD12046FFF718FD38B9FFF7E3FF30B92A
:100BCC00FFF77EFDF9E7012010BD002010BDFFF7F7
:100BDC00D9FF0020FFF710FC003018BF012010BD1A
:100BEC0008B5FFF7DCFFBDE80840FFF7FDBB0000D0
:100BFC0008B5FFF7F5FFFFF793FF014B586808BDE9
:100C0C007C010020024B1A68024B1A60704700BF2F
:100C1C000C000020A00100200021FFF7C5BC10B57E
:100C2C008368044613B1032201469847204610BD41
:100C3C0010B50446FFF7F3FF204610BD13B50B4665
:100C4C00044603C88DE8030093E8030084E803001E
:100C5C009DE8030083E8030002B010BD03480023A5
:100C6C008360034A034900F007BF00BFB0010020B6
:100C7C00C40000203D0C080808B5184B33B100F037
:100C8C0027FC03681B69984700281EDC144B33B102
:100C9C0000F04AFD03681B699847002818DC114BCB
:100CAC000BB1AFF30080104B0BB1AFF300800F4BC7
:100CBC000BB1AFF300800E4B7BB100F045FC036829
:100CCC001B699847002806DC08BDAFF30080DDE700
:100CDC00AFF30080E3E7AFF3008008BD0000000035
:100CEC0000000000000000000000000000000000F8
:100CFC000000000008B5FFF7BFFFFFF76DFB014BCD
:100D0C00186008BD8C0600200248034A0349121AD9
:100D1C0001F00AB90040024004400240502C08087F
:100D2C0007B5002300931A466FF07701FFF76EFCAE
:100D3C0003B05DF804FB000007B543880A2B08D00C
:100D4C00502B09D1094B1B683BB103B05DF804EB88
:100D5C001847FFF7E5FF06E0002300931A466FF0F3
:100D6C007701FFF753FC03B05DF804FBC0010020D2
:100D7C0038B5104C104D2368AB42104B0CBF012200
:100D8C0000221A7002D0FFF7BFFF2560FFF71CFB93
:100D9C00044601F0DDF80A4B13B12046AFF3008096
:100DAC0000210748FFF7BCFCBDE83840002105488E
:100DBC00FFF722BC004002401E1C279AC4010020F1
:100DCC0000000000450D080870470020704710B562
:100DDC000446102100F055FE204610BD08B508B1A0
:100DEC00FFF7F5FF08BD002202604FF69C7282806F
:100DFC0010B5B1F9044084808A8002680C680460E4
:100E0C000A6010BD10B504460068FFF799FC204637
:100E1C0010BD38B5C468F4B12378022B03D104F1AA
:100E2C000C00FFF7EFFF656835B12846FFF7F7FEBA
:100E3C001021284600F025FEA56835B12846FFF79D
:100E4C00EEFE1021284600F01CFE2046BDE838407E
:100E5C00142100F016BE38BD13B5044691E8050008
:100E6C0000234B600B602060626001A8019300932B
:100E7C00FFF731FE204602B010BDF7B50C46064612
:100E8C000F4654F8043B02AD45F8083D214601A835
:100E9C00FFF737FE29463046FFF7DEFF01A8FFF7C4
:100EAC001AFE2046FFF717FE3846082100F0E9FD30
:100EBC00304603B0F0BD000038B500230446036093
:100ECC0010200D46FFF7E3F828B10123436083603F
:100EDC00024BC56003602060204638BDF828080826
:100EEC00826810B50AB900F0CEFDC368BDE81040A9
:100EFC00184708B5006800F11001FFF7F1FF08BDB5
:100F0C00826810B50AB900F0BEFDC368BDE8104098
:100F1C00184708B5006800F11001FFF7F1FF08BD94
:100F2C0038B5002383608B6804460D462BB1022232
:100F3C009847EB68E360AB68A360204638BD0000BF
:100F4C00F0B589B004686846FFF74DFF4FF0020218
:100F5C0000238DF80830D4E84F3F002B03D1C4E8B0
:100F6C00412F0029F7D102D08DF8083063E014F13D
:100F7C000C0503D069462846FFF735FFBFF35F8F9A
:100F8C0001236370BFF35F8F04F10803002053E863
:100F9C00006F43E80002002AF9D1BFF35F8F002EE7
:100FAC0049D0FFF711FB20B129463046FFF798FFD7
:100FBC003AE0314602A8FFF7B3FFE068B4F91050ED
:100FCC0008B101F00FF806901020ADF81C50FFF797
:100FDC005EF80546E8B1002787601820FFF757F840
:100FEC00044688B10146876002A8FFF727FE049BE0
:100FFC00A268A360059B0492E26806A9E36004F171
:10100C0010000592FFF7EFFE0D4B2C60EB600D4BC3
:10101C00AB6006A8FFF7F6FE02A8FFF700FE002261
:10102C0029460948FFF7D8FA3046FFF7F8FD10219A
:10103C00304600F026FD6846FFF7E4FE09B0F0BD2F
:10104C00FF0E080875110808811708082DE9F04FE4
:10105C008BB006460F46904699469DF850A0FFF778
:10106C0047FB07AD834630BB4FF62E73059005A9A1
:10107C002846ADF81830FFF7B6FE1420FFF707F836
:10108C00044658B10223037001234370C0F804B026
:10109C00C0F808B029460C30FFF7A5FE30462146B3
:1010AC0040F8044BFFF708FF2846FFF7ABFE05A8F6
:1010BC00FFF7A8FE52E000240C2314206C60AC60F7
:1010CC000793FEF7E4FF014618B1047044704460C6
:1010DC00846004A80391FFF7EFFE224B08200893CD
:1010EC00FEF7D5FF044628B1039B04A940F8043B46
:1010FC00FFF707FD00955FFA8AF34A4641463846EA
:10110C000994FFF7FDFA20B9039B5B7803F0FF020B
:10111C0083B1039B04A906A80593FFF7F2FC05A96C
:10112C003046FFF799FE06A8FFF7D5FC04A8FFF799
:10113C00D2FC13E04FF69C7305A903A80592ADF8F9
:10114C001830FFF7FDFE05A8FFF75CFE05A809990E
:10115C00FFF793FE06A8FFF7BEFCDAE730460BB0AC
:10116C00BDE8F08FE5120808022AF8B5044606D04F
:10117C00032A17D0012A22D10B6803601FE0182024
:10118C000E68FEF784FF054650B13146FFF7C8FEE6
:10119C003069B6F9147008B100F024FF2861AF82F1
:1011AC0025600CE0046854B104F11000FFF72AFE2E
:1011BC002046FFF734FD1821204600F062FC002089
:1011CC00F8BD38B5002383608B6804460D462BB1FF
:1011DC0002229847EB68E360AB68A360204638BDF9
:1011EC00022A70B5044606D0032A11D0012A18D160
:1011FC000B68036015E014200E68FEF748FF0546E7
:10120C0020B13146FFF7DDFF337C2B74256008E0FD
:10121C00046834B12046FFF702FD1421204600F08B
:10122C0030FC002070BD0000F0B50C46BFF35F8FA2
:10123C0087B0002350E8006F40E80032002AF9D153
:10124C00BFF35F8F002E3FD01846FFF7BDF907465E
:10125C0020B121463046FFF753FE2EE0314601A85F
:10126C00FFF7AFFF237810208DF81430FEF70FFF37
:10127C000546D0B187601420FEF709FF044678B10B
:10128C008760014601A8FFF7D9FC039BA268A36005
:10129C00049B0392E268E3609DF81430049223747B
:1012AC000A4B2C60EB600A4BAB6001A8FFF7B7FC54
:1012BC00002229460748FFF78FF93046FFF7AFFCAD
:1012CC001021304600F0DDFB07B0F0BD1F0F080801
:1012DC00ED1108088117080830B5044685B00D4695
:1012EC0068461146FFF7C9FD7CB124B228460DB102
:1012FC0000F078FE029002A96846ADF80C40FFF7AA
:10130C001FFE02A8FFF77EFD1DE04FF001020098C2
:10131C008DF80840D0E84F3FA34203D1C0E8412FDD
:10132C000029F7D102D08DF808300CE010F10C0137
:10133C004FF0010318BF0373BFF35F8F043000F845
:10134C00033CFFF771FF01A8FFF7C5FB05B030BDEB
:10135C00704710B50446082100F093FB204610BDE1
:10136C00F8B50F4600F10806051D002416F8011DFE
:10137C000A223846FFF777FBAE42044407D0002C14
:10138C00F4D02E213846FFF72BFB0444EEE7204621
:10139C00F8BD0000024A026000224260704700BFA4
:1013AC0014290808024A02600A684260704700BFAC
:1013BC0014290808014A4160026070471429080882
:1013CC0010B59DF8084044EA032343EA024242EA7E
:1013DC000161416010BD000037B5044D05609DF8FA
:1013EC0018500095FFF7ECFF03B030BD1429080826
:1013FC0041747047704708B50021007CFFF7ACF8CA
:10140C0030EA200028BF4FF0FF3008BD08B501219D
:10141C00007CFFF7A1F830EA200028BF4FF0FF3026
:10142C0008BD08B5007CFFF78FF820EAE07008BD16
:10143C0008B5007CFFF780F820EAE07008BD007C5E
:10144C00FFF79AB810B50446142100F01AFB204699
:10145C0010BD38B50446007C0D46FFF775F8002822
:10146C0001DC607C28B12946207CFFF77DF820EA5E
:10147C00E07038BD10B50446002363604FF47A73F6
:10148C00A360054B08462360012321746374114645
:10149C00FFF742F8204610BD282908080022007CDE
:1014AC00FFF742B810B504461422002100F047FDA6
:1014BC00054B20466360054BE36040F2011323812A
:1014CC008123238210BD00BF4D020020CC010020DF
:1014DC0030B50E4D87B001A8FFF7E4FF296811F075
:1014EC00010410D12846FEF7D6FD60B101AA2146B1
:1014FC000748FFF7BFFF2846FEF7D2FD054A06490D
:10150C00034800F0B9FA024807B030BDC80100200A
:10151C0050030020C40000200114080810B5044634
:10152C001422002100F00BFD054B20466360054B97
:10153C00E36040F2011323818123238210BD00BF9D
:10154C00000400206803002010B50E4C86B001A8E2
:10155C00FFF7E4FF2368DB0710D42046FEF79BFD62
:10156C0060B101AA01210848FFF784FF2046FEF76D
:10157C0097FD064A0649044800F07EFA024806B078
:10158C0010BD00BF64030020EC030020C400002049
:10159C0001140808002211464068FFF759B82DE9DC
:1015AC00FF41002604AC054610468846174644F811
:1015BC00046D00F032FD009681B2D8F8043022465A
:1015CC003846FEF7A1FF20B131462846FFF7F2FE60
:1015DC0003E021462846FFF7E5FE284604B0BDE8A7
:1015EC00F081002211464068FFF752B800221146E4
:1015FC004068FFF75DB800224068FFF751B8002241
:10160C0081F001014068FFF73BB800231A461946E8
:10161C004068FFF72DB800231A4619464068FFF7BB
:10162C001FB8002211464068FFF702B800220221C1
:10163C004068FFF705B800231A464068FEF7F0BF74
:10164C0038B5084C28252A460021204600F077FCA6
:10165C004FF0FF336360044B04225A60034A258029
:10166C001A6038BD0C050020040500205829080814
:10167C0070474174704708B5007CFEF705FF20EAFF
:10168C00E07008BD08B5007CFEF7D6FE20EAE070DD
:10169C0008BD08B5007CFEF7DFFE30EA200028BF4D
:1016AC004FF0FF3008BD08B5007CFEF7CDFE30EAE8
:1016BC00200028BF4FF0FF3008BD007CFEF7D4BEE1
:1016CC0010B50446142100F0DCF9204610BD70B5AD
:1016DC00457C04460E4625B9007CFEF7D5FE002855
:1016EC0005DD3146207CBDE87040FEF79DBE2846E6
:1016FC0070BD000010B50446084611460022626019
:10170C004FF47A72A260054A20742260012262743E
:10171C001A46FEF781FE204610BD00BF8C29080832
:10172C00007CFEF7A9BE000038B50C4D296811F0FD
:10173C00010411D12846FEF7AEFC68B1084A2146D7
:10174C00084B0948FFF7D6FF2846FEF7A9FC074AC5
:10175C000749054800F090F9034838BDCC05002036
:10176C00D00500204805002034050020C4000020CE
:10177C007D16080810B5836804460BB900F083F990
:10178C00C3689847A3681BB103222146204698479B
:10179C002046BDE81040102100F073B97047F8B531
:1017AC00064615460C468F18BC4206D0336814F812
:1017BC00011B9B6830469847F6E72846F8BD002287
:1017CC00007CFEF769BE0021007CFEF76DBE002197
:1017DC00007CFEF771BE0021007CFEF775BE002177
:1017EC00007CFEF779BE10B50446142100F049F9CF
:1017FC00204610BD10B5044608464FF47A73A3601A
:10180C00044B0021207461602360FEF775FE2046B6
:10181C0010BD00BFBC2908080021007CFEF764BE87
:10182C0000231A464068FEF7FBBE002202214068E6
:10183C00FEF706BF002211464068FEF7F9BE0022F3
:10184C0011464068FEF704BF00231A46194640684B
:10185C00FEF706BF00231A4619464068FEF708BF7C
:10186C00002281F001014068FEF70ABF00224068A7
:10187C00FEF716BF002211464068FEF719BF002282
:10188C0011464068FEF704BFF0B5174687B0054611
:10189C0004A8FFF77FFD002606AC384644F80C6D13
:1018AC0000F0BBFB0A4B009681B25B6822463846BF
:1018BC00FEF72AFE20B131462846FFF77BFD03E0F8
:1018CC0021462846FFF76EFD284607B0F0BD00BF45
:1018DC0004050020024B034A1A6000225A6070472C
:1018EC0054060020E429080810B504460F48FEF7FA
:1018FC006BFF28B1A4F10D03022B01D8002010BD01
:10190C0000F09AF8FFF788FF08B1012CF6D9FFF721
:10191C000BFFFFF705FF18B1A4F11203012BEDD952
:10192C002E2C8CBF0020012010BD00BF5C060020B7
:10193C002E2838B504460D460AD8FF2908D0FFF7E3
:10194C00D3FF28B129462046BDE83840FEF70CBD30
:10195C0038BD38B504460D46FEF70EFDFF2810D0F5
:10196C00062804D84D2323FA00F0C30709D42046D7
:10197C00FFF7BAFF28B129462046BDE83840FEF7EC
:10198C0003BD38BD10B50446FEF7F6FC0438C0B2F2
:10199C00012808D92046FFF7A7FF20B12046BDE853
:1019AC001040FEF7F9BC002010BD000070B5114EC0
:1019BC00114D124C00213046FEF7F2FE3046104E0F
:1019CC002A46214600F058F801213046FEF7E8FE81
:1019DC0030460C4E2A46214600F04EF80221304685
:1019EC00FEF7DEFE2A4621463046BDE8704000F088
:1019FC0043B800BF5C060020C40000209D07080807
:101A0C006C0600207C06002013B5084C00231A46F7
:101A1C00194600932046FFF7DFFC2046044A05498F
:101A2C0002B0BDE8104000F027B800BF90060020BF
:101A3C00C40000205D13080838B50B4D296811F05F
:101A4C0001040FD12846FEF726FB58B12146074862
:101A5C00FFF7D0FE2846FEF723FB054A054903484D
:101A6C0000F00AF8014838BD980600209C060020BA
:101A7C00C4000020A91708080B460146184600F0C0
:101A8C004DB9FEF706BB08B5FEF772FE184B1A6887
:101A9C00D1075CBF01221A60164B1A68D2075CBFD3
:101AAC0001221A60144B1A68D0075CBF01221A601D
:101ABC00124B1A68D1075CBF01221A60104B1A68CE
:101ACC00D2075CBF01221A600E4B1A68D0075CBFAC
:101ADC0001221A600C4B1A68D1075CBF01221A60F4
:101AEC000A4B1A68D2075CBF01221A60704700BF0C
:101AFC00CC060020C8060020C4060020C00600202A
:101B0C00BC060020B8060020B4060020B006002059
:101B1C00244B1A68D0075CBF01221A60224B1A684A
:101B2C00D1075CBF01221A60204B1A68D2075CBF38
:101B3C0001221A601E4B1A68D0075CBF01221A6082
:101B4C001C4B1A68D1075CBF01221A601A4B1A6829
:101B5C00D2075CBF01221A60184B1A68D0075CBF11
:101B6C0001221A60164B1A68D1075CBF01221A6059
:101B7C00144B1A68D2075CBF01221A60124B1A6808
:101B8C00D0075CBF01221A60104B1A68D1075CBFEA
:101B9C0001221A600E4B1A68D2075CBF01221A6030
:101BAC00704700BFFC060020F8060020F406002059
:101BBC00F0060020EC060020E8060020E4060020D9
:101BCC00E0060020DC060020D8060020D406002009
:101BDC00D0060020244B1A68D0075CBF01221A6083
:101BEC00224B1A68D1075CBF01221A60204B1A687D
:101BFC00D2075CBF01221A601E4B1A68D0075CBF6B
:101C0C0001221A601C4B1A68D1075CBF01221A60B2
:101C1C001A4B1A68D2075CBF01221A60184B1A685B
:101C2C00D0075CBF01221A60164B1A68D1075CBF43
:101C3C0001221A60144B1A68D2075CBF01221A6089
:101C4C00124B1A68D0075CBF01221A60104B1A683D
:101C5C00D1075CBF01221A600E4B1A68D2075CBF19
:101C6C0001221A60704700BF2C07002028070020B3
:101C7C0024070020200700201C0700201807002044
:101C8C0014070020100700200C0700200807002074
:101C9C000407002000070020184B1A68D1075CBF0E
:101CAC0001221A60164B1A68D2075CBF01221A6017
:101CBC00144B1A68D0075CBF01221A60124B1A68C9
:101CCC00D1075CBF01221A60104B1A68D2075CBFA7
:101CDC0001221A600E4B1A68D0075CBF01221A60F1
:101CEC000C4B1A68D1075CBF01221A600A4B1A68A8
:101CFC00D2075CBF01221A60704700BF4C0700205E
:101D0C004807002044070020400700203C07002023
:101D1C0038070020340700203007002010B5054C90
:101D2C0013462CB10A4601460220AFF3008010BDC9
:101D3C00204610BD0000000038B5074B05461C6856
:101D4C00E36B1BB92420FEF7F3FCE063E16B284640
:101D5C00BDE8384000F002B8740000202DE9F041D5
:101D6C000C46804600F072FC21460746404600F0C7
:101D7C0071FC4669044606F26C76B30705D1642201
:101D8C0096FBF2F302FB13634BB94FF4C87596FB49
:101D9C00F5F305FB1365B5FA85F35B0900E0012348
:101DAC005F4A302505FB032500F084FA00F084FA25
:101DBC005C4B1B68F3B17B689E4205D13968D8F83F
:101DCC000030FA6941B90AE0304600F0CBF900283E
:101DDC00F4D14FF0FF330DE0934208DB01E0934266
:101DEC0007DABA6B9342ACBF0023012302E0002355
:101DFC0000E001232362236A3C20012B0CBFF96B0A
:101E0C00396A4FF4616391FBF3F603FB161393FBF2
:101E1C00F0F200FB123061682368891AA2681B1A61
:101E2C00921B3B2B23606160A26003DD013161607A
:101E3C003C3B04E0002B03DA013961603C33236046
:101E4C0063683B2B03DD0132A2603C3B04E0002BBA
:101E5C0003DA013AA2603C336360A368172B22DDDE
:101E6C00E269183B0132E261A269A3600132062AE1
:101E7C00C8BF0022A261E26823690132E26055F812
:101E8C0023108A4246DD01330C2B08BF6369A2EB99
:101E9C000102E26005BF013300222361226104BF0D
:101EAC006361E26136E0002B34DAE2691833013AFF
:101EBC00E261A269A360013A48BF0622A261E2680E
:101ECC00013AE26032BB2369013B01D423611DE07E
:101EDC000B23236163695A1E12F0030F626103F234
:101EEC006B7305D1642193FBF1F201FB12324AB9F9
:101EFC004FF4C87193FBF1F201FB1233B3FA83F385
:101F0C005B0900E0012303F5B673E361236955F81F
:101F1C002330E36000F0CFF92046BDE8F08100BF2C
:101F2C00782B08086C07002010B5431E0A44914218
:101F3C0004D011F8014B03F8014FF8E710BD03462C
:101F4C000244934202D003F8011BFAE770470000E9
:101F5C0038B5124B05461C68A36BD3B91820FEF795
:101F6C00E7FB43F20E33A06303804AF6CD33438084
:101F7C0041F2342383804EF26D63C3804DF6EC63E3
:101F8C000381052343810B23838101220023C0E9B4
:101F9C000423A36B00221D615A6138BD740000201C
:101FAC00024610B513461C780132002CFAD1013BC5
:101FBC0011F8012B03F8012F002AF9D110BD10F8EC
:101FCC00012B11F8013B012A28BF9A42F7D0D01AF5
:101FDC007047034611F8012B03F8012B002AF9D1A5
:101FEC0070470000024B0146186800F003B800BFB0
:101FFC007400002070B5064608460C4600F00DF83B
:10200C00451C29463046FEF7BBFB064618B12A464E
:10201C002146FFF789FF304670BD034613F8012BAC
:10202C00002AFBD1181A0138704730B582B1451E11
:10203C00013915F8013F11F8014FA34206D1EC43C9
:10204C001444E04201D0002BF3D11C46181B30BDC8
:10205C00104630BD2DE9F0470E4680463B48D0F87F
:10206C000090354615F8014B09EB0400407800F060
:10207C00080000F0FF0708B12E46F2E72D2C03D123
:10208C00B51C7478012703E02B2C04BF7478B51CA5
:10209C0013B1102B0AD153E0302C4FD1287800F01B
:1020AC00DF00582845D16C78102302354FF0FF3CE7
:1020BC00BCFBF3FC03FB0CFA00266FEA0A0A304661
:1020CC0009EB040E9EF801E01EF0040F01D0303C29
:1020DC000BE01EF0030E1AD0BEF1010F0CBF4FF037
:1020EC00370E4FF0570ECEEB0404A3420FDD002E3B
:1020FC0008DB604506D801D1544503DC03FB0040E6
:10210C00012601E04FF0FF3615F8014BD8E7002E01
:10211C0007DA2223C8F800304FF0FF302AB9BDE8A7
:10212C00F08707B1404272B106B1691E1160BDE87B
:10213C00F0873024002BB9D10823B7E70A23B5E781
:10214C00302CABD0B2E7BDE8F08700BF1000002008
:10215C0013460A46014602480068FFF77BBF00BFE2
:10216C00740000202DE9F74F044600F06FFA40F29E
:10217C00B1739C4240F3968040F26D156FF4F66398
:10218C00E318A4F2B2729B1005FB0235A4F26D7237
:10219C006FF0630392FBF3F36FF4C8622B44A51842
:1021AC004FF4C87294FBF2F795FBF2F502FB17475C
:1021BC001D44642394FBF3F6B7FA87FE014603FB38
:1021CC00164600F13803019304F0030344604FEA10
:1021DC005E1E00934FF0070C0B7A4A2B0ED14B6905
:1021EC00009AEC1802B906B927B93B2BD4BF0023CF
:1021FC00012300E000232344013B3FE0442B02D1A8
:10220C004B692B443AE0009B2BB9002E0CBFF046D7
:10221C004FF0010800E0F046A946244B302202FBA7
:10222C000838CC68A8F1040A0123A34204DA5AF84E
:10223C0004BF0133D944F8E709F1040393FBFCFB19
:10224C00CBEBCB0ACAEB030A4B69012CB8BF0124B8
:10225C00B3EB0A0A0B6904F1804403F1FF3304F178
:10226C00FF3448BF0AF1070AC3EBC30358F82440F4
:10227C005344A34201DB073BFBE74B448C690C4AFC
:10228C0002FB03430C6A234441F81C3F019B994217
:10229C00A2D1C369826B9342ACBF002301230360BC
:1022AC00012000E0002003B0BDE8F08F782B080877
:1022BC008051010070477047014B186800F002B85C
:1022CC00740000202DE9F04F8DB0074600F0BEF9E8
:1022DC00B0490446384600F0B1F9AF4E054660B936
:1022EC00AE4BAF4A1860AF4B1860AF4B30681A60FA
:1022FC005A60FEF725FA356048E1316879B93068E3
:10230C00FEF71EFA2846FFF788FE411C3846FEF7FA
:10231C0037FA306048B12946FFF75BFE05E0FFF75E
:10232C004EFE002800F03281E9E72B780AAE3A2BFA
:10233C0008BF013533469D4A9D492846FEF710FAE1
:10234C00002840F323810A9BEF18EB5C2D2B03D163
:10235C0001374FF0FF3503E02B2B08BF0137012568
:10236C000DF1200A0DF11E0B4FF000080396CDF86D
:10237C0008A00196CDF800B0334607AA8D4938461F
:10238C00ADF81E80ADF82080FEF7EAF9404540F329
:10239C00FD80BDF81E20BDF820303C2101FB02332E
:1023AC00BDF81C204FF4616101FB02335D437F4B90
:1023BC0025627D4DDFF808922B600A9B4A461F442C
:1023CC007B4933463846FEF7CBF9404508DC2B6891
:1023DC00226A6B60714B1A60724BC3F80080D5E0B7
:1023EC000A9BC5F80490FD18FB5C2D2B03D101351D
:1023FC004FF0FF3703E02B2B08BF013501270023DB
:10240C00ADF81C30ADF81E30ADF820300A930396B1
:10241C00CDF808A00196CDF800B0334607AA65495F
:10242C002846FEF79DF9002804DC236AA3F56163B6
:10243C00E3630EE0BDF81E20BDF820303C2101FB0B
:10244C000233BDF81C204FF4616101FB02335F4382
:10245C00E76327460A9B4FF000091D442B782C2B71
:10246C0008BF013595F80080B8F14D0F26D10DF15C
:10247C002603029309AB00930396019633460DF1A4
:10248C0022024D492846FEF76BF903287ED1BDF890
:10249C0022104B1E0B2B79D8BDF82420531E042B75
:1024AC0074D8BDF82630062B70D887F80880F960F0
:1024BC003A617B610A9B05EB03082AE0B8F14A0FED
:1024CC0006BF4346013544230A220BA9284605932F
:1024DC00FFF73EFEDDF82C80ADF826004545059B48
:1024EC0014D14D23B9F1000F07D123720323E360FC
:1024FC0002232361C4F814900BE084F824300B23DE
:10250C00A3620123E3620023236302E080B23B72E7
:10251C0078610223ADF81C300023ADF81E30ADF805
:10252C0020300A9398F800302F2B0BD10396CDF85E
:10253C0008A00196CDF800B0334607AA1F494046C3
:10254C00FEF70EF9BDF81E20BDF820303C2101FB32
:10255C000233BDF81C204FF4616101FB0233BB61F7
:10256C000A9D09F10109B9F1020F454407F11C0755
:10257C007FF474AF6068FFF7F5FD226A074B1A60B1
:10258C00E36B9B1A074A18BF012313600DB0BDE81B
:10259C00F08F00BFD82B08086807002070070020B8
:1025AC00DB2B08086C070020780000205B0700205C
:1025BC00DF2B0808022C0808EE2B0808012C080851
:1025CC00500700202DE9F84F07468B46904600F047
:1025DC00D7F8194B1D689A463DB15C46234613F853
:1025EC00012B42B13D2A1C46F8D1384600F0C9F8FF
:1025FC000020BDE8F88FCBEB0404A94659F8040B76
:10260C000028F2D022465946FFF70FFD88B959F839
:10261C00043C1E191B5D3D2B0BD1DAF800303846FB
:10262C00ED1AAD10C8F8005000F0ABF8701CBDE806
:10263C00F88F4D46E1E700BFC000002007B501AAA6
:10264C00FFF7C0FF03B05DF804FB000000487047C3
:10265C00800000200268464BF0B592FBF3F403FBBC
:10266C001422002ABCBF02F5A83202F5C0724FF446
:10267C00616092FBF0F300FB13224FF03C008B6087
:10268C0092FBF0F300FB132204F52F24ACBF04F6ED
:10269C006C2404F66B244B600A600723E21C92FB4B
:1026AC00F3F3344DC3EBC30394FBF5F5D31A48F69F
:1026BC00AC6240F2B4578B612F4B304803FB05449E
:1026CC00B4FBF2F2B4FBF7F3B4FBF0F02244D21AF1
:1026DC0048F69466131A40F26D12B3FBF6F6B3FB90
:1026EC00F2F0B3FBF7F33444E31A02FB103303EBC1
:1026FC00830299240232B2FBF4F25443A61C052443
:10270C00B6FBF4F40A2A34BF02266FF0090616440D
:10271C004FF4C87202FB05055F1C012E98BF0135F2
:10272C00B3F5997FA7EB040702D3A3F5997214E0D4
:10273C00820705D16424B0FBF4F204FB12024AB9FF
:10274C004FF4C872B0FBF2F402FB1400B0FA80F242
:10275C00520900E001223B331A44A5F26C750023A8
:10276C00CA614D610E61CF600B620846F0BD00BFBF
:10277C0080510100B13A02004FC5FDFFB03A020092
:10278C00704770471D0008085D000808890008089C
:10279C008D000808000000002C005061796C6F61FE
:1027AC00643A005374617475735261696E47617554
:1027BC006765004D6573736167652073656E7400A2
:1027CC00536C656570000000000000000000000004
:1027DC009D0708089F0708086261756400536572BD
:1027EC0069616C0055534253657269616C310074B8
:1027FC0079706500706172616D00636D640069646D
:10280C0000686E64007374726D0066696C74006CA1
:10281C00766C0061646448616E646C65720072650C
:10282C006D6F766548616E646C657200656E756D72
:10283C0048616E646C657273004A534F4E537472E8
:10284C0065616D4C6F6748616E646C657200617098
:10285C007000253031307520005D20002564002C7F
:10286C00200028293A2000205B00636F6465203D1E
:10287C00200025690064657461696C73203D20003B
:10288C000D0A0066006C6E00666E00636F64650076
:10289C0064657461696C006E6F6E6500747261635F
:1028AC006500696E666F007761726E006572726F9B
:1028BC00720070616E696300616C6C00252B3033A3
:1028CC00643A253032750025592D256D2D2564541B
:1028DC0025483A254D3A2553257A0061736374696E
:1028EC006D6500000000000000000000D50D080818
:1028FC00DB0D08081F0E0808E90D0808D70D08089D
:10290C0000000000000000006D1308085D130808AB
:10291C005F13080800000000000000000114080804
:10292C00511408085F140808990908083D14080890
:10293C0003140808191408084B1408082F14080865
:10294C00FD130808000000000000000043160808F2
:10295C00391608082F160808A115080823160808A8
:10296C00171608080B16080803160808F9150808A6
:10297C00EF150808AB150808000000000000000067
:10298C007D160808CD160808DB16080899090808F2
:10299C0091160808B31608089F160808C7160808E9
:1029AC007F160808831608080000000000000000CD
:1029BC00A9170808F3170808CB170808AB1708085D
:1029CC00D3170808DB170808E3170808EB170808E3
:1029DC0000000000000000002D1808083718080837
:1029EC00411808084B1808085518080861180808F9
:1029FC006D18080879180808811808088B18080839
:102A0C00951808080020202020202020202028288D
:102A1C002828282020202020202020202020202092
:102A2C0020202020208810101010101010101010D2
:102A3C001010101010040404040404040404041002
:102A4C001010101010104141414141410101010190
:102A5C00010101010101010101010101010101015A
:102A6C001010101010104242424242420202020266
:102A7C00020202020202020202020202020202022A
:102A8C0010101010200000000000000000000000DA
:102A9C00000000000000000000000000000000002A
:102AAC00000000000000000000000000000000001A
:102ABC00000000000000000000000000000000000A
:102ACC0000000000000000000000000000000000FA
:102ADC0000000000000000000000000000000000EA
:102AEC0000000000000000000000000000000000DA
:102AFC0000000000000000000000000000000000CA
:102B0C0000000000000000000000000000000000B9
:102B1C0000000000000000000000000000000000A9
:102B2C000000000000000000000000000000000099
:102B3C000000000000000000000000000000000089
:102B4C000000000000000000000000000000000079
:102B5C000000000000000000000000000000000069
:102B6C000000000000000000430000001F000000F7
:102B7C001C0000001F0000001E0000001F000000D1
:102B8C001E0000001F0000001F0000001E000000BF
:102B9C001F0000001E0000001F0000001F000000AE
:102BAC001D0000001F0000001E0000001F000000A0
:102BBC001E0000001F0000001F0000001E0000008F
:102BCC001F0000001E0000001F000000545A0047A8
:102BDC004D54002531305B5E302D392C2B2D5D256D
:102BEC006E004D256875256E2E256875256E2E2573
:102BFC006875256E002F256875256E3A2568752534
:102C0C006E3A256875256E00310308080D08080812
:102C1C001D0B0808110C0808690C08084D1608084B
:102C2C00E1180808B9190808151A0808991A0808AB
:102C3C001D1B0808E11B0808A51C08080000000063
:042C4C000000000084
:042C50000000000080
:102C540007000000050000000F000000E728080836
:102C6400102A080800000000142B0808342B080858
:102C7400542B0808000000000000000000000000C1
:102C840000000000742B0808000000000000000091
:102C94000000000000000000000000000000000030
:102CA4000000000000000000000000000000000020
:102CB4000000000000000000000000000000000010
:102CC4000000000014000020DB2B0808DB2B0808A0
:102CD40001000000000000004A00000000000000A5
:102CE40000000000000000000000000000000000E0
:102CF400000000004A000000000000000000000086
:102D040000000000000000000000000000000000BF
:042D14007407002020
:102D1800FFFFFFFF00000102030405060708090A78
:102D28000B0C0D0E0F101112131415161718191A73
:082D38001B1C1D1E1F202800BA
:042D4000785634127B
:040000050808001CCB
:00000001FF
