:02000002D0002C
:1040000000400D003C700D00000006000D00050191
:08401000040179050000000025
:04401800246A0D0009
:10401C0009480A49884208B505D0094A824202D0AB
:10402C00121A02F0C9F80748074A0021121A02F0C6
:10403C00CEF8014808BD00BF58E20320506F0D00B8
:10404C001CE303201CE30320F0E7032070B500F011
:10405C004BFF074C074BE41AA40800251E46A5424B
:10406C0004D056F8253098470135F8E770BD00BFED
:10407C00506F0D00146F0D0000F076B808B500F00D
:10408C00CFF8BDE8084000F0FDBE00F0D5BB00F055
:10409C00DBBB00F0D9BB0078B0FA80F04009704768
:1040AC0001230370704710B5036804469B6898475A
:1040BC00A368013BA3602BB923682046DB68BDE8ED
:1040CC001040184710BD000010B5144C00231A46C0
:1040DC001946606800F040FB00231A4619466068D8
:1040EC0000F01AFB00221146606800F02DFB68B14D
:1040FC000A4B00221146586800F026FB00F064FBC6
:10410C0000F072FB28B900F057FBF9E700F054FB04
:10411C00E8E7BDE8104000F067BB00BFC0E4032037
:10412C001FB5FFF7D1FF00F05FFB10B1002000F0CE
:10413C006BFB0A4B0A4A1B788DF8003002A83C2313
:10414C00084901F02DF8039828B14368013B4360FE
:10415C000BB9FFF7A8FF05B05DF804FBAEE3032035
:10416C00C8E30320386A0D0038B501F06FFA104D22
:10417C00104C4FF4165101F05DFA0221042001F0AD
:10418C0043FD0121288801F03FFD0121208801F029
:10419C003BFD0021288801F048FD0021208801F01A
:1041AC0044FDFFF7BDFF00F00BFE034B186038BD5C
:1041BC00C4E3032058E20320BCE3032010B500F055
:1041CC000BFB00F011FB044650B900F00DFB064848
:1041DC002346224621464068BDE8104000F0C4BA90
:1041EC0000F0EAFAEDE700BFC0E4032010B50A4B7B
:1041FC001B68012B0FD0094C23684FF4C870013396
:10420C00236000F0F1FD01F021FA21680A22BDE8DB
:10421C00104000F05BBD10BDC0E30320B0E30320F1
:10422C002DE9F04387B000F0CBFD514C514E20608E
:10423C00042001F013FD504B326818604F4D236879
:10424C004F4F9B1A2A689342A14672D33B68002BAE
:10425C006FD04C4CDFF8608123681BB14A494B4846
:10426C0001F0E6FF0A22D8F8001002A800F03DFC8D
:10427C000299464801F0DCFF02A800F0DEFB01F0D9
:10428C00E5F9434900F0AAFC01F0E0F93F4900F0E0
:10429C00B8FC01F0DBF931680A2200F0EBFC0022DB
:1042AC002368C8F80020D9F800203260394E2968FC
:1042BC003268B2FBF1F201339342236055D3FFF71E
:1042CC0003FF00F075FD31683C250A2205FB110146
:1042DC0002A800F01DFC02992F4801F0C2FF02A8B1
:1042EC0000F0ABFB2D492C4801F0A2FF27492A48CE
:1042FC0001F09EFF2A4B284A1B788DF8003002A84B
:10430C002B46284900F04CFF039828B14368013B29
:10431C0043600BB9FFF7C7FE01F098F9224900F092
:10432C0070FC2249194801F09CFF002323603B607C
:10433C001BE03C68BCB9FFF741FF01F087F91C4951
:10434C0000F05FFC01F082F9184900F05AFC2A6871
:10435C00184B3C214A431B68214602A800F0FAFA8C
:10436C00074B01221A60FFF741FF07B0BDE8F0834D
:10437C0020E30320BCE30320C0E303205CE2032022
:10438C00B4E3032024E30320566A0D00C8E30320A2
:10439C00486A0D0060E203202EE30320516A0D00F1
:1043AC00AEE30320586A0D005D6A0D005B6B0D00D7
:1043BC006A6A0D00B8E30320B0E30320094B10B583
:1043CC0000241C60084B01221A7000F021F8074BE6
:1043DC004FF6FF721C705C809A800320BDE8104081
:1043EC0000F056B9B8E30320AEE3032028E3032022
:1043FC0008B5024B1B689B68019308BD680203005B
:10440C0008B5024B1B68DB68019308BD680203000A
:10441C0008B5024B1B681B68019308BD2C020300F6
:10442C0008B5024B1B689B68019308BD2C02030066
:10443C0008B5024B1B68DB68019308BD2C02030016
:10444C0008B5024B1B681B69019308BD2C020300C5
:10445C0008B5024B1B685B69019308BD2C02030075
:10446C0008B5024B1B68DB69019308BD30020300E1
:10447C0008B5024B1B681B6A019308BD3002030090
:10448C0008B5024B1B685B68019308BD180203005A
:10449C0008B5024B1B685B69019308BD1802030049
:1044AC0008B5024B1B68DB69019308BD18020300B9
:1044BC0008B5024B1B689B6D019308BD18020300E5
:1044CC0008B5024B1B689B68019308BD48020300AA
:1044DC0008B5024B1B681B69019308BD4802030019
:1044EC0008B5024B1B685B69019308BD48020300C9
:1044FC0008B5024B1B681B6B019308BD48020300F7
:10450C0008B5024B1B685B6C019308BD48020300A5
:10451C0008B5024B1B685B69019308BD640203007C
:10452C0008B5024B1B681B68019308BD3C020300D5
:10453C0008B5024B1B68DB68019308BD3C02030005
:10454C0008B5024B1B681B69019308BD3C020300B4
:10455C0008B5024B1B685B69019308BD3C02030064
:10456C0008B5024B1B689B69019308BD3C02030014
:10457C0008B5024B1B68DB69019308BD3C020300C4
:10458C0008B5024B1B681B6A019308BD3C02030073
:10459C0008B5024B1B689B6A019308BD3C020300E3
:1045AC0008B5024B1B681B6A019308BD2802030067
:1045BC0008B5024B1B685B6A019308BD2802030017
:1045CC0008B5024B1B689B6A019308BD28020300C7
:1045DC0008B5024B1B68DB6A019308BD2802030077
:1045EC0008B5024B1B681B6B019308BD2802030026
:1045FC0008B5024B1B685B6B019308BD28020300D6
:10460C0008B5024B1B681B6C019308BD2802030004
:10461C0008B5024B1B681B68019308BD4C020300D4
:10462C0008B5024B1B685B68019308BD4C02030084
:10463C0008B5024B1B681B69019308BD4C020300B3
:10464C0008B5024B1B685B69019308BD4C02030063
:10465C0008B5024B1B689B69019308BD4C02030013
:10466C0008B5024B1B68DB69019308BD4C020300C3
:10467C0008B5024B1B681B6A019308BD4C02030072
:10468C0008B5024B1B681B68019308BD2002030090
:10469C0008B5024B1B685B68019308BD2002030040
:1046AC0008B5024B1B685B69019308BD200203002F
:1046BC0008B5024B1B689B69019308BD20020300DF
:1046CC0008B5024B1B68DB6C019308BD200203008C
:1046DC0008B5024B1B685B6D019308BD20020300FB
:1046EC0008B5024B1B689B6D019308BD20020300AB
:1046FC0008B5034B1B68D3F88830019308BD000044
:10470C002002030008B5034B1B68D3F894300193C7
:10471C0008BD00002002030008B5024B1B685B6853
:10472C00019308BD4002030008B5024B1B689B684F
:10473C00019308BD4002030008B5024B1B68DB68FF
:10474C00019308BD4002030008B5024B1B681B69AE
:10475C00019308BD4002030008B5024B1B685B695E
:10476C00019308BD4002030008B5024B1B689B690E
:10477C00019308BD4002030008B5024B1B68DB69BE
:10478C00019308BD4002030008B5024B1B681B6A6D
:10479C00019308BD4002030008B5024B1B681B6B5C
:1047AC00019308BD4002030008B5024B1B685B6B0C
:1047BC00019308BD4002030008B5024B1B689B68BF
:1047CC00019308BD4402030008B5024B1B68DB686B
:1047DC00019308BD4402030008B5024B1B681B691A
:1047EC00019308BD4402030008B5024B1B685B69CA
:1047FC00019308BD4402030008B5024B1B681B6AF9
:10480C00019308BD4402030008B5024B1B68DB6A28
:10481C00019308BD4402030008B5024B1B681B6BD7
:10482C00019308BD4402030008B5024B1B68DB6B07
:10483C00019308BD4402030008B5024B1B681B68BA
:10484C00019308BD1C02030008B5024B1B685B6892
:10485C00019308BD1C02030008B5024B1B689B6842
:10486C00019308BD1C02030008B5024B1B689B6931
:10487C00019308BD1C02030008B5024B1B68DB6AE0
:10488C00019308BD1C02030008B5024B1B681B6B8F
:10489C00019308BD1C020300002211464068FFF77B
:1048AC0073BF002211464068FFF77EBF00224068AC
:1048BC00FFF772BF002281F001014068FFF75CBF77
:1048CC0000231A4619464068FFF74EBF00231A46CC
:1048DC0019464068FFF740BF002211464068FFF7B9
:1048EC0033BF002211464068FFF71EBF0022022191
:1048FC004068FFF721BF00231A464068FFF70CBF42
:10490C00024B03225A60024A1A60704748E40320A3
:10491C00786A0D00704710B51021044601F0F9F9C2
:10492C00204610BD70B5084B0360044600250E46AA
:10493C0040F80C5FFFF7DCFD30462671FFF790FD69
:10494C00A560204670BD00BFAC6A0D000079FFF772
:10495C008FBD000010B50446084611461A460023C8
:10496C00FFF7A6FE064B00221A704FF6FF72588016
:10497C009A801A689B882260A380204610BD00BFD5
:10498C0050E40320044B00204FF6FF72187058803F
:10499C009A80FFF77DBE00BF50E4032010B504469B
:1049AC0001F083FC013823182046984206D2027885
:1049BC00197800F8011B03F80129F6E710BD70B552
:1049CC000C46911E222920D82546294610B923448D
:1049DC0030220EE0B0FBF2F602FB1600C1B205F875
:1049EC00011B092894BF3031573105F8011C3046A2
:1049FC00EBE7994202D201F8012BFAE7002320469B
:104A0C000B70FFF7CBFF204670BD002070BD38B592
:104A1C00031E0C4615460BDAB3F1004F4FF02D0276
:104A2C0014BF5842184601230A702A46194400E064
:104A3C000123FFF7C4FF204638BD10B504460068BB
:104A4C00FFF702FF204610BD10B50446006808B100
:104A5C00FFF7FAFE00232360A360636010BD38B536
:104A6C0004460D4600680131FFF7F6FE10B184E8EC
:104A7C002100012038BD10B50368044613B143680A
:104A8C008B4207D22046FFF7EAFF20B1A3680BB98F
:104A9C0022681370012010BD70B50E4611460446F5
:104AAC001546FFF7E8FF18B92046FFF7CDFF09E0E0
:104ABC002A463146A560206801F07EFB2268A36877
:104ACC000021D154204670BD38B505460C4641B185
:104ADC00084601F0EAFB214602462846FFF7DCFFB8
:104AEC0001E0FFF7B1FF284638BD10B5044600239E
:104AFC008AB023606360A3602373084601A9FFF7A3
:104B0C0086FF01A92046FFF7DFFF20460AB010BD43
:104B1C0010B504468AB0002323606360A36023733E
:104B2C000846012301A9FFF74AFF01A92046FFF718
:104B3C00CBFF20460AB010BD10B5036804469B6835
:104B4C009847A368013BA3602BB923682046DB6818
:104B5C00BDE81040184710BD0B68036013B15A68CC
:104B6C0001325A60704710B50446006828B143689A
:104B7C00013B43600BB9FFF7DFFF204610BD00007F
:104B8C00024800230360FFF7BBBC00BF58E40320BE
:104B9C00F8B506460D468F180024BD420CD033687C
:104BAC0015F8011B9B6830469847002801DB04442C
:104BBC00F3E7002C08BF04462046F8BD70B5054647
:104BCC000C46084649B101F070FB2B6802462146A1
:104BDC002846DB68BDE87040184770BD08B5FFF784
:104BEC00EDFF08BD03689B68184738B50D210546D5
:104BFC00FFF7F8FF0A2104462846FFF7F3FF20448D
:104C0C0038BD38B50546FFF7D9FF04462846FFF7EF
:104C1C00ECFF204438BD30B58BB00B4600218DF82D
:104C2C002410012A98BF0A220DF12304B3FBF2F5DC
:104C3C0005FB123303F0FF03092B94BF30333733DA
:104C4C00DBB2214604F801392B46002DEED1FFF7DB
:104C5C00B5FF0BB030BD10B42AB903685DF8044B36
:104C6C009B68C9B21847D2B25DF8044BFFF7D3BFAB
:104C7C00FFF7F1BF38B50546FFF7EDFF04462846B0
:104C8C00FFF7B3FF204438BD2DE9F04107460E462F
:104C9C0015462AB90368C9B29B68BDE8F0411847AC
:104CAC000A2A02D1002901DA04E0D2B2BDE8F041AF
:104CBC00FFF7B1BF2D21FFF795FF2A46044671423D
:104CCC003846FFF7A8FF2044BDE8F08138B505460B
:104CDC00FFF7DAFF04462846FFF787FF204438BD6C
:104CEC00014B024A1A6070475CE40320276B0D00ED
:104CFC00F0B5144B144F1E68144B064418683B68EF
:104D0C0006449E428BB01BD00AA801AD40F8286D1A
:104D1C0001F05AF9436903F26C73436104460FCCFA
:104D2C000FC50FCC0FC5D4F800E0C5F800E001ADFD
:104D3C000FCD074C0FC40FCD0FC43E60C4F800E07C
:104D4C000BB0F0BD90E403208CE4032088E4032036
:104D5C0060E4032008B50020FFF75EFD28B1FFF7E3
:104D6C0043FD80F00100C0B208BD012008BD10B5A4
:104D7C000020FFF79DFB044668B9FFF781FC012872
:104D8C000BD12046FFF7ACFC38B9FFF7E3FF30B985
:104D9C00FFF712FDF9E7012010BD002010BDFFF751
:104DAC00D9FF0020FFF784FB003018BF012010BD95
:104DBC0008B5FFF7DCFFBDE80840FFF771BB00004A
:104DCC0008B5FFF7F5FFFFF793FF014B586808BDD7
:104DDC0060E40320024B1A68024B1A60704700BF54
:104DEC0064E2032084E403200021FFF759BC10B5D2
:104DFC008368044613B1032201469847204610BD30
:104E0C0010B50446FFF7F3FF204610BD13B50B4653
:104E1C00044603C88DE8030093E8030084E803000C
:104E2C009DE8030083E8030002B010BD0348044A68
:104E3C0004490023836000F067BF00BF94E40320A3
:104E4C001CE303200D4E0D0008B50C4B33B100F0E4
:104E5C00FDFB03681B699847002809DC084B63B10C
:104E6C0000F0C2FC03681B699847002803DC08BDEE
:104E7C00AFF30080F2E7AFF3008008BD0000000044
:104E8C000000000008B5FFF7DFFFFFF701FB014B47
:104E9C00186008BD0CE7032007B5002300931A46E1
:104EAC006FF07701FFF72EFC03B05DF804FB0000F8
:104EBC0007B543880A2B08D0502B09D1094B1B6826
:104ECC003BB103B05DF804EB1847FFF7E5FF06E0D4
:104EDC00002300931A466FF07701FFF713FC03B021
:104EEC005DF804FBA4E4032010B5FFF7C9FA0446EF
:104EFC0001F076F9074B13B12046AFF30080002187
:104F0C000448FFF791FC00210348BDE81040FFF76F
:104F1C00EFBB00BF00000000BD4E0D00704700202D
:104F2C00704710B51021044600F0F3FE204610BD6A
:104F3C0008B508B1FFF7F5FF08BD0022026010B5F7
:104F4C004FF69C728280B1F9044084808A8002689A
:104F5C000C6804600A6010BD10B504460068FFF7C9
:104F6C0073FC204610BD38B5C468F4B12378022B0D
:104F7C0003D104F10C00FFF7EFFF656835B128464B
:104F8C00FFF735FF1021284600F0C3FEA56835B1A8
:104F9C002846FFF72CFF1021284600F0BAFE2046C9
:104FAC001421BDE8384000F0B4BE38BD13B504463A
:104FBC0091E8050000234B600B602060626001A843
:104FCC0001930093FFF7CFFD204602B010BDF7B55B
:104FDC000C4602AD54F8043B45F8083D06460F4616
:104FEC0001A82146FFF7B8FD29463046FFF7DEFF42
:104FFC0001A8FFF7B8FD2046FFF7B5FD384608219C
:10500C0000F087FE304603B0F0BD000038B5002339
:10501C000446036010200D46FFF737F828B1012332
:10502C0043608360024B0360C5602060204638BD3E
:10503C00C46B0D00826810B50AB900F06CFEC36831
:10504C00BDE81040184708B5006800F11001FFF7E3
:10505C00F1FF08BD826810B50AB900F05CFEC368A8
:10506C00BDE81040184708B5006800F11001FFF7C3
:10507C00F1FF08BD38B5002383608B6804460D46EC
:10508C002BB102229847EB68E360AB68A360204623
:10509C0038BD0000F0B589B004686846FFF74DFFD5
:1050AC0000238DF808304FF00202D4E84F3F002B5C
:1050BC0003D1C4E8412F0029F7D102D08DF8083074
:1050CC0063E014F10C0503D069462846FFF735FF61
:1050DC00BFF35F8F01236370002004F10803BFF35B
:1050EC005F8F53E8006F43E80002002AF9D1BFF349
:1050FC005F8F002E49D0FFF7E3FA20B129463046E6
:10510C00FFF798FF3AE0314602A8FFF7B3FFE068DB
:10511C00B4F9105008B101F0ADF806901020ADF8BC
:10512C001C50FEF7B2FF0546E8B100278760182037
:10513C00FEF7ABFF044688B10146876002A8FFF773
:10514C0065FE049BA268A360059B049206A9E26815
:10515C00E36004F110000592FFF7EFFE0D4BEB60DE
:10516C000D4B2C60AB6006A8FFF7F6FE02A8FFF70C
:10517C003EFE002229460948FFF7AAFA3046FFF7FF
:10518C0036FE1021304600F0C4FD6846FFF7E4FE01
:10519C0009B0F0BD53500D00C9520D0075580D00EB
:1051AC002DE9F04F8BB006460F46904699469DF878
:1051BC0050A0FFF719FB07AD834630BB4FF62E739B
:1051CC00059005A92846ADF81830FFF7B6FE142057
:1051DC00FEF75BFF044658B10223037001234370B2
:1051EC00C0F804B0C0F808B029460C30FFF7A5FE93
:1051FC003046214640F8044BFFF708FF2846FFF7DE
:10520C00ABFE05A8FFF7A8FE52E000240C231420E7
:10521C006C60AC600793FEF738FF014618B1047060
:10522C0044704460846004A80391FFF7EFFE224BA6
:10523C0008930820FEF729FF044628B1039B40F889
:10524C00043B04A9FFF788FC00955FFA8AF34A46F1
:10525C00414638460994FFF7CFFA20B9039B5B7897
:10526C0003F0FF0283B1039B059304A906A8FFF783
:10527C0073FC05A93046FFF799FE06A8FFF773FCEF
:10528C0004A8FFF770FC13E04FF69C7305A903A864
:10529C000592ADF81830FFF7FDFE05A8FFF75CFE90
:1052AC0005A80999FFF793FE06A8FFF75CFCDAE75F
:1052BC0030460BB0BDE8F08F39540D00022AF8B51A
:1052CC00044606D0032A17D0012A22D10B680360AA
:1052DC001FE018200E68FEF7D8FE054650B1314687
:1052EC00FFF7C8FE3069B6F9147008B100F0C2FFC0
:1052FC002861AF8225600CE0046854B104F1100001
:10530C00FFF72AFE2046FFF772FD1821204600F019
:10531C0000FD0020F8BD38B5002383608B6804467F
:10532C000D462BB102229847EB68E360AB68A36093
:10533C00204638BD022A70B5044606D0032A11D087
:10534C00012A18D10B68036015E014200E68FEF7D3
:10535C009CFE054620B13146FFF7DDFF337C2B74F4
:10536C00256008E0046834B12046FFF740FD1421A5
:10537C00204600F0CEFC002070BD0000F0B50023EC
:10538C0087B00C46BFF35F8F50E8006F40E80032E7
:10539C00002AF9D1BFF35F8F002E3FD01846FFF7DC
:1053AC008FF9074620B121463046FFF753FE2EE019
:1053BC00314601A8FFF7AFFF23788DF81430102089
:1053CC00FEF763FE0546D0B187601420FEF75DFE44
:1053DC00044678B18760014601A8FFF717FD039BCF
:1053EC00A268A360049B0392E268E3609DF814300A
:1053FC00049223740A4BEB600A4B2C60AB6001A83F
:10540C00FFF7F5FC002229460748FFF761F9304603
:10541C00FFF7EDFC1021304600F07BFC07B0F0BD2F
:10542C0073500D0041530D0075580D0030B585B00B
:10543C0004460D4668461146FFF7C9FD7CB124B2FF
:10544C0028460DB100F016FF029002A96846ADF88F
:10545C000C40FFF71FFE02A8FFF77EFD1DE0009831
:10546C008DF808404FF00102D0E84F3FA34203D122
:10547C00C0E8412F0029F7D102D08DF808300CE09C
:10548C0010F10C014FF0010318BF0373BFF35F8FD2
:10549C00043000F8033CFFF771FF01A8FFF763FB32
:1054AC0005B030BD704710B51821044600F031FC32
:1054BC00204610BDF0B5037D062B8DB00E4600F1D5
:1054CC0004074FF0000402D000F1080518E00CAD01
:1054DC00394605F8304D2F232A460A20FFF718F8D5
:1054EC00284600F0E2FE33680246DB682946304667
:1054FC0098470FE024B12E213046FFF773FB04448C
:10550C0015F8011D0A223046FFF7B2FBBD420444D8
:10551C00F0D120460DB0F0BD10B5054B044611225C
:10552C0040F8043B002100F052FE204610BD00BFA5
:10553C00E06B0D000346074A10B543F8042B01F14C
:10554C00100251F8044B43F8044B9142F9D10A78FC
:10555C001A7010BDE06B0D0010B59DF8084044EAC0
:10556C00032343EA024242EA0161042341600375CA
:10557C0010BD37B50D788B784A78C97800912946DB
:10558C00FFF7EAFF03B030BD41747047704708B5B0
:10559C000021007CFFF75CF830EA200028BF4FF0B8
:1055AC00FF3008BD08B50121007CFFF751F830EA47
:1055BC00200028BF4FF0FF3008BD08B5007CFFF776
:1055CC003FF820EAE07008BD08B5007CFFF730F822
:1055DC0020EAE07008BD007CFFF74AB810B5142132
:1055EC00044600F096FB204610BD38B50446007CFE
:1055FC000D46FFF725F8002801DC607C28B1294610
:10560C00207CFFF72DF820EAE07038BD10B5044679
:10561C00002363604FF47A73A360054B236001236E
:10562C000846217463741146FEF7F2FF204610BD44
:10563C00F46B0D000022007CFEF7F2BF10B51422B3
:10564C000446002100F0C3FD204610BD30B50E4DC0
:10565C0087B001A8FFF7F2FF296811F0010410D1FF
:10566C002846FEF718FD60B101AA21460748FFF74E
:10567C00CDFF2846FEF714FD054A0649034800F005
:10568C0043FB024807B030BDA8E40320ACE4032080
:10569C001CE3032099550D00002211464068FFF7CA
:1056AC0053B8002211464068FFF76EB8002211462D
:1056BC004068FFF779B800224068FFF76DB8002208
:1056CC0081F001014068FFF757B800231A461946CC
:1056DC004068FFF749B800231A4619464068FFF79F
:1056EC003BB8002211464068FFF71EB80022022189
:1056FC004068FFF721B800231A464068FFF70CB842
:10570C0038B5084C28252A460021204600F05FFDBC
:10571C004FF0FF336360044B258004225A60034A28
:10572C001A6038BDC8E40320C0E40320246C0D00CB
:10573C0070474174704708B5007CFEF729FF20EADA
:10574C00E07008BD08B5007CFEF7FAFE20EAE070B8
:10575C0008BD08B5007CFEF703FF30EA200028BF27
:10576C004FF0FF3008BD08B5007CFEF7F1FE30EAC3
:10577C00200028BF4FF0FF3008BD007CFEF7F8BEBC
:10578C0010B51421044600F0C4FA204610BD70B5C3
:10579C00457C04460E4625B9007CFEF7F9FE002830
:1057AC0005DD3146207CBDE87040FEF7C1BE2846C1
:1057BC0070BD000010B50446084611460022626018
:1057CC004FF47A72A260054A22600122207462743E
:1057DC001A46FEF7A5FE204610BD00BF586C0D0002
:1057EC00007CFEF7CDBE0000F8B5194C25684DB90C
:1057FC008420FEF74AFC064618B18422294600F0A4
:10580C00E6FC2660134D2E684EB98420FEF73DFC55
:10581C00074618B18422314600F0D9FC2F600E4F98
:10582C00396811F0010611D13846FEF734FC68B125
:10583C0022682B6809483146FFF7BCFF3846FEF753
:10584C002FFC074A0749054800F05EFA0348F8BDEB
:10585C000CE5032004E5032008E50320F0E4032015
:10586C001CE303203D570D0010B5836804460BB9AB
:10587C0000F051FAC3689847A3681BB10322214674
:10588C002046984720461021BDE8104000F041BA50
:10589C007047F8B5064615460C468F18BC4206D024
:1058AC00336814F8011B9B6830469847F6E7284686
:1058BC00F8BD0022007CFEF773BE0021007CFEF7D1
:1058CC0077BE0021007CFEF77BBE0021007CFEF73A
:1058DC007FBE0021007CFEF783BE10B51421044668
:1058EC0000F017FA204610BD10B504464FF47A7339
:1058FC000846A3600021044B207461602360FEF70E
:10590C007FFE204610BD00BF886C0D000021007C7E
:10591C00FEF76EBE002211464068FEF735BF00222E
:10592C0011464068FEF740BF00224068FEF734BFC6
:10593C00002281F001014068FEF71EBF00231A46C9
:10594C0001214068FEF710BF00231A461946406833
:10595C00FEF702BF002211464068FEF7F5BE00229A
:10596C0011464068FEF7E0BE002202214068FEF7B7
:10597C00E3BE00231A464068FEF7CEBE38B5054696
:10598C0088B104684CB1A3681BB1032221462046A0
:10599C0098471021204600F0BCF928461421BDE898
:1059AC00384000F0B6B938BD10B103685B681847D1
:1059BC00704710B503680446BBB15868FEF780FD0C
:1059CC0078B923685A7C12B95868FEF781FD2368B0
:1059DC005868FEF785FD20680023236028B1FFF787
:1059EC00CDFF206808B1FFF7C9FF204610BD0000AD
:1059FC0038B50C4B03600446D0F8CC0108B1FEF767
:105A0C0048FBD4F8C45135B12846FFF7D2FF042126
:105A1C00284600F07EF9A06808B1FFF7C5FF2046C4
:105A2C0038BD00BFB06C0D0038B50E4C0E4B23606A
:105A3C000025022304F5E4706360A560C4F8C4512A
:105A4C00C4F8C851FEF75CFD084BC4F8CC5184F87F
:105A5C00D05123602046064A0649BDE8384000F084
:105A6C0053B900BF10E50320E46C0D00B06C0D00C1
:105A7C001CE30320FD590D0000231A464068FEF775
:105A8C004BBE002202214068FEF756BE0022114692
:105A9C004068FEF749BE002211464068FEF754BE2E
:105AAC0000231A4619464068FEF756BE00231A46D4
:105ABC0019464068FEF758BE002281F0010140688B
:105ACC00FEF75ABE00224068FEF766BE0022114661
:105ADC004068FEF769BE002211464068FEF754BECE
:105AEC002DE9F043002495B016460D460746FFF706
:105AFC0013FD214620220CA8009400F068FB4023E3
:105B0C000C9321466B460CAA3046FEF779FC0446F2
:105B1C00002844D1024601216868FEF715FE0221D7
:105B2C00804622466868FEF70FFE009E814621469D
:105B3C00002E34D0002932D17368022B02D00A2BEC
:105B4C0009D02AE0B8F1000F27D07169384604312A
:105B5C00FFF70FFD20E0B9F1000F1ED07469112280
:105B6C0001A800F034FB06238DF8143001AD04F1CC
:105B7C0008031834186859682A4603C20833A3422C
:105B8C001546F7D101A906A807ADFFF7D3FC0FCD39
:105B9C003C1D0FC42B6823700121F669C8E70098DF
:105BAC00FEF726FC384615B0BDE8F083024B034ADD
:105BBC001A6000225A607047E4E60320E46C0D0082
:105BCC0010B504460F48FEF7C1FE28B1A4F10B0333
:105BDC00022B01D8002010BD00F076F8FFF796FEDE
:105BEC0008B1012CF6D9FFF7FFFDFFF7F9FD18B14D
:105BFC00A4F10903012BEDD9232C8CBF002001202B
:105C0C0010BD00BFECE60320232838B504460D4632
:105C1C000AD8FF2908D0FFF7D3FF28B12946204620
:105C2C00BDE83840FEF7FCBB38BD38B504460D4620
:105C3C00FEF7FEFBFF2810D0062804D84D2323FACC
:105C4C0000F0C30709D42046FFF7BAFF28B1294654
:105C5C002046BDE83840FEF7F3BB38BD10B504460E
:105C6C00FEF7E6FB0438C0B2012808D92046FFF73E
:105C7C00A7FF20B12046BDE81040FEF7E9BB00208D
:105C8C0010BD000070B50C4C0C4E0D4D0021204683
:105C9C00FEF748FE20460B4C3246294600F034F8FD
:105CAC0001212046FEF73EFE324629462046BDE83D
:105CBC00704000F029B800BFECE603201CE3032081
:105CCC0021490D00FCE6032038B50B4D296811F075
:105CDC0001040FD12846FEF7DEF958B121460748DA
:105CEC00FFF702FE2846FEF7DBF9054A0549034893
:105CFC0000F00AF8014838BD10E7032014E7032030
:105D0C001CE303209D580D000B460146184600F07D
:105D1C004DB9FEF7BCB908B5FEF7AEFD184B1A68C5
:105D2C00D1075CBF01221A60164B1A68D2075CBF00
:105D3C0001221A60144B1A68D0075CBF01221A604A
:105D4C00124B1A68D1075CBF01221A60104B1A68FB
:105D5C00D2075CBF01221A600E4B1A68D0075CBFD9
:105D6C0001221A600C4B1A68D1075CBF01221A6021
:105D7C000A4B1A68D2075CBF01221A60704700BF39
:105D8C0044E7032040E703203CE7032038E70320E7
:105D9C0034E7032030E703202CE7032028E7032017
:105DAC00244B1A68D0075CBF01221A60224B1A6878
:105DBC00D1075CBF01221A60204B1A68D2075CBF66
:105DCC0001221A601E4B1A68D0075CBF01221A60B0
:105DDC001C4B1A68D1075CBF01221A601A4B1A6857
:105DEC00D2075CBF01221A60184B1A68D0075CBF3F
:105DFC0001221A60164B1A68D1075CBF01221A6087
:105E0C00144B1A68D2075CBF01221A60124B1A6835
:105E1C00D0075CBF01221A60104B1A68D1075CBF17
:105E2C0001221A600E4B1A68D2075CBF01221A605D
:105E3C00704700BF74E7032070E703206CE7032072
:105E4C0068E7032064E7032060E703205CE7032096
:105E5C0058E7032054E7032050E703204CE70320C6
:105E6C0048E70320244B1A68D0075CBF01221A6054
:105E7C00224B1A68D1075CBF01221A60204B1A68AA
:105E8C00D2075CBF01221A601E4B1A68D0075CBF98
:105E9C0001221A601C4B1A68D1075CBF01221A60E0
:105EAC001A4B1A68D2075CBF01221A60184B1A6889
:105EBC00D0075CBF01221A60164B1A68D1075CBF71
:105ECC0001221A60144B1A68D2075CBF01221A60B7
:105EDC00124B1A68D0075CBF01221A60104B1A686B
:105EEC00D1075CBF01221A600E4B1A68D2075CBF47
:105EFC0001221A60704700BFA4E70320A0E703202B
:105F0C009CE7032098E7032094E7032090E7032005
:105F1C008CE7032088E7032084E7032080E7032035
:105F2C007CE7032078E70320184B1A68D1075CBF85
:105F3C0001221A60164B1A68D2075CBF01221A6044
:105F4C00144B1A68D0075CBF01221A60124B1A68F6
:105F5C00D1075CBF01221A60104B1A68D2075CBFD4
:105F6C0001221A600E4B1A68D0075CBF01221A601E
:105F7C000C4B1A68D1075CBF01221A600A4B1A68D5
:105F8C00D2075CBF01221A60704700BFC4E7032030
:105F9C00C0E70320BCE70320B8E70320B4E70320E5
:105FAC00B0E70320ACE70320A8E7032010B5054CAD
:105FBC0013462CB10A4601460220AFF3008010BDF7
:105FCC00204610BD0000000038B5074B1C68E36B81
:105FDC0005461BB92420FEF72FFCE063E16B284635
:105FEC00BDE8384000F002B8CCE203202DE9F041C6
:105FFC000C46804600F072FC21460746404600F0F5
:10600C0071FC466906F26C76B307044605D164222E
:10601C0096FBF2F302FB13634BB94FF4C87596FB76
:10602C00F5F305FB1365B5FA85F35B0900E0012375
:10603C005F4A302505FB032500F084FA00F084FA52
:10604C005C4B1B68F3B17B689E4205D13968D8F86C
:10605C000030FA6941B90AE0304600F0CBF900286B
:10606C00F4D14FF0FF330DE0934208DB01E0934293
:10607C0007DABA6B9342ACBF0023012302E0002382
:10608C0000E001232362236A012B0CBFF96B396AF0
:10609C004FF461633C2091FBF3F603FB161361682C
:1060AC0093FBF0F200FB12302368891AA26861603E
:1060BC001B1A921B3B2B2360A26003DD0131616034
:1060CC003C3B04E0002B03DA013961603C33236074
:1060DC0063683B2B03DD0132A2603C3B04E0002BE8
:1060EC0003DA013AA2603C336360A368172B22DD0C
:1060FC00E2690132E261A2690132062AC8BF0022BC
:10610C00A261E268183B0132A3602369E26055F892
:10611C0023108A4246DD01330C2B0CBF63692361CB
:10612C00A2EB0102E26001BF013300222261636134
:10613C0008BFE26136E0002B34DAE269013AE26131
:10614C00A269013A48BF0622A261E2681833013AFB
:10615C00E260A36032BB2369013B01D423611DE0E3
:10616C000B23236163695A1E12F0030F626103F261
:10617C006B7305D1642193FBF1F201FB12324AB926
:10618C004FF4C87193FBF1F201FB1233B3FA83F3B2
:10619C005B0900E0012303F5B673E361236955F84D
:1061AC002330E36000F0CFF92046BDE8F08100BF5A
:1061BC00786E0D00E4E7032010B5431E0A449142AB
:1061CC0004D011F8014B03F8014FF8E710BD02445D
:1061DC000346934202D003F8011BFAE77047000014
:1061EC0038B5124B1C68A36B0546D3B91820FEF7C3
:1061FC0023FB43F20E33A06303804AF6CD33438076
:10620C0041F2342383804EF26D63C3804DF6EC6310
:10621C000381052343810B23838101220023C0E9E1
:10622C000423A36B00221D615A6138BDCCE203200C
:10623C0010B50246134601321C78002CFAD1013BF2
:10624C0011F8012B03F8012F002AF9D110BD10F819
:10625C00012B11F8013B012A28BF9A42F7D0D01A22
:10626C007047034611F8012B03F8012B002AF9D1D2
:10627C0070470000024B0146186800F003B800BFDD
:10628C00CCE2032070B5064608460C4600F00DF82B
:10629C00451C29463046FEF7F7FA064618B12A4641
:1062AC002146FFF789FF304670BD034613F8012BDA
:1062BC00002AFBD1181A0138704730B582B1451E3F
:1062CC00013915F8013F11F8014FA34206D1EC43F7
:1062DC001444E04201D0002BF3D11C46181B30BDF6
:1062EC00104630BD2DE9F04780463C48D0F8009070
:1062FC000E46354615F8014B09EB0400407800F0CA
:10630C00080000F0FF0708B12E46F2E72D2C03D150
:10631C00B51C7478012703E02B2C04BF7478B51CD2
:10632C0013B1102B0AD153E0302C4FD1287800F048
:10633C00DF00582845D16C78102302354FF0FF3C14
:10634C000026BCFBF3FC03FB0CFA6FEA0A0A30468E
:10635C0009EB040E9EF801E01EF0040F01D0303C56
:10636C000BE01EF0030E1AD0BEF1010F0CBF4FF064
:10637C00370E4FF0570ECEEB0404A3420FDD002E68
:10638C0008DB604506D801D1544503DC03FB004013
:10639C00012601E04FF0FF3615F8014BD8E7002E2F
:1063AC0007DA2223C8F800304FF0FF302AB9BDE8D5
:1063BC00F08707B1404272B106B1691E1160BDE8A9
:1063CC00F0873024002BB9D10823B7E70A23B5E7AF
:1063DC00302CABD0B2E7BDE8F08700BF68E20320F9
:1063EC0013460A46014602480068FFF77BBF00BF10
:1063FC00CCE203202DE9F74F044600F06FFA40F28F
:10640C00B1739C4240F396806FF4F663E318A4F2E8
:10641C00B2729B1040F26D1505FB0235A4F26D7241
:10642C006FF0630392FBF3F36FF4C8622B44A5186F
:10643C004FF4C87295FBF2F51D44642394FBF2F7FC
:10644C0094FBF3F602FB174703FB164600F13803E7
:10645C00B7FA87FE019304F0030344604FEA5E1E13
:10646C00014600934FF0070C0B7A4A2B0ED14B6967
:10647C00009AEC1802B906B927B93B2BD4BF0023FC
:10648C00012300E000232344013B3FE0442B02D1D5
:10649C004B692B443AE0009B2BB9002E0CBFF04605
:1064AC004FF0010800E0F046244BCC68302202FB90
:1064BC000838A8F1040AA9460123A34204DA5AF8C1
:1064CC0004BF0133D944F8E709F1040393FBFCFB47
:1064DC00CBEBCB0A012CCAEB030A4B69B8BF0124E6
:1064EC0004F18044B3EB0A0A0B6904F1FF3403F1A5
:1064FC00FF3348BF0AF1070AC3EBC30358F8244023
:10650C005344A34201DB073BFBE74B448C690C4A29
:10651C0002FB03430C6A234441F81C3F019B994244
:10652C00A2D1C369826B9342ACBF002301230360E9
:10653C00012000E0002003B0BDE8F08F786E0D0064
:10654C008051010070477047014B186800F002B889
:10655C00CCE203202DE9F04F8DB0074600F0BEF9D8
:10656C00B049B14E0446384600F0B0F9054660B962
:10657C00AE4BAF4A1860AF4B1860AF4B30681A6027
:10658C005A60FEF761F9356048E1316879B93068D5
:10659C00FEF75AF92846FFF788FE411C3846FEF7ED
:1065AC0073F9306048B12946FFF75BFE05E0FFF751
:1065BC004EFE002800F03281E9E72B789F4AA04973
:1065CC003A2B08BF01350AAE33462846FEF74CF984
:1065DC00002840F323810A9BEF18EB5C2D2B03D191
:1065EC0001374FF0FF3503E02B2B08BF0137012596
:1065FC000DF1200A0DF11E0B4FF000080396CDF89B
:10660C0008A00196CDF800B0334607AA8D49ADF825
:10661C001E803846ADF82080FEF726F9404540F341
:10662C00FD80BDF81E20BDF82030DFF824923C21FF
:10663C0001FB0233BDF81C204FF4616101FB0233F6
:10664C005D4325627C4D7D4B2B600A9B7C491F442E
:10665C004A4633463846FEF707F9404508DC2B68B6
:10666C006B60724B226A1A60724BC3F80080D5E0E3
:10667C000A9BC5F80490FD18FB5C2D2B03D101354A
:10668C004FF0FF3703E02B2B08BF01350127002308
:10669C00ADF81C30ADF81E30ADF820300A930396DF
:1066AC00CDF808A00196CDF800B0334607AA65498D
:1066BC002846FEF7D9F8002804DC236AA3F56163A9
:1066CC00E3630EE0BDF81E20BDF820303C2101FB39
:1066DC000233BDF81C204FF4616101FB02335F43B0
:1066EC00E7630A9B27461D444FF000092B782C2B9F
:1066FC0008BF013595F80080B8F14D0F26D10DF18A
:10670C002603029309AB00930396019633460DF1D1
:10671C0022024D492846FEF7A7F803287ED1BDF882
:10672C0022104B1E0B2B79D8BDF82420531E042BA2
:10673C0074D8BDF82630062B70D887F80880F9601D
:10674C003A617B610A9B05EB03082AE0B8F14A0F1A
:10675C0006BF0135434644230A220BA9284605935C
:10676C00FFF73EFEDDF82C80ADF826004545059B75
:10677C0014D14D23B9F1000F07D123720323E36029
:10678C0002232361C4F814900BE084F824300B230B
:10679C00A3620123E3620023236302E080B23B7215
:1067AC0078610223ADF81C300023ADF81E30ADF833
:1067BC0020300A9398F800302F2B0BD10396CDF88C
:1067CC0008A00196CDF800B0334607AA1F494046F1
:1067DC00FEF74AF8BDF81E20BDF820303C2101FB25
:1067EC000233BDF81C204FF4616101FB0233BB6125
:1067FC000A9D09F10109B9F1020F454407F11C0783
:10680C007FF474AF6068FFF7F5FD084B226A1A60DD
:10681C00E36B9B1A074A18BF012313600DB0BDE848
:10682C00F08F00BFD86E0D00E0E70320E8E70320EF
:10683C00DB6E0D00E4E70320D0E20320D3E7032056
:10684C00DF6E0D00026F0D00EE6E0D00016F0D007E
:10685C00C8E703202DE9F84F07468B46904600F019
:10686C00D9F8194B1D689A463DB15C46234613F87E
:10687C00012B42B13D2A1C46F8D1384600F0CBF82A
:10688C000020BDE8F88FCBEB0404A94659F8040BA3
:10689C000028F2D022465946FFF70FFD88B959F867
:1068AC00043C1E191B5D3D2B0BD1DAF80030ED1AA0
:1068BC00AD103846C8F8005000F0ADF8701CBDE8BB
:1068CC00F88F4D46E1E700BF18E3032007B501AA96
:1068DC00FFF7C0FF03B05DF804FB000000487047F1
:1068EC00D8E203200268474BF0B592FBF3F403FBAC
:1068FC001422002ABCBF02F5A83202F5C0724FF474
:10690C00616004F52F2492FBF0F300FB13224FF08F
:10691C003C00ACBF04F66C2404F66B248B6092FB39
:10692C00F0F300FB13224B600A600723E21C92FB7E
:10693C00F3F3C3EBC303D31A8B61334B334D94FB8B
:10694C00F5F503FB054448F6AC62B4FBF2F22244C5
:10695C0040F2B457B4FBF7F3D21A2D48B4FBF0F065
:10696C0048F69466131AB3FBF6F6344440F26D12F3
:10697C00B3FBF2F0B3FBF7F3E31A02FB10339924E9
:10698C0003EB83020232B2FBF4F20A2A04FB02F498
:10699C0004F102064FF00504B6FBF4F434BF0226F2
:1069AC006FF0090616444FF4C87202FB05055F1C14
:1069BC00012E98BF0135B3F5997FA7EB040702D3DD
:1069CC00A3F5997214E0820705D16424B0FBF4F2AC
:1069DC0004FB12024AB94FF4C872B0FBF2F402FB8A
:1069EC001400B0FA80F2520900E001223B331A4441
:1069FC00A5F26C750023CA614D610E61CF600B620C
:106A0C000846F0BD805101004FC5FDFFB13A0200B0
:106A1C00B03A0200704770471D400D0059400D0000
:106A2C0085400D0089400D00000000005374617416
:106A3C0075735261696E4761756765005061796C59
:106A4C006F61643A002C313030312C0054656D701C
:106A5C00004D6573736167652073656E7400536CCC
:106A6C0065657000000000000000000003490D0087
:106A7C00F9480D00EF480D00E5480D00D9480D0010
:106A8C00CD480D00C1480D00B9480D00AF480D00B0
:106A9C00A5480D00ED5A0D0000000000000000009C
:106AAC0021490D0023490D00626175640053657224
:106ABC0069616C0053657269616C31007479706541
:106ACC0000706172616D00636D6400696400686ED2
:106ADC0064007374726D0066696C74006C766C0083
:106AEC0061646448616E646C65720072656D6F768A
:106AFC006548616E646C657200656E756D48616E9B
:106B0C00646C657273004A534F4E53747265616DB9
:106B1C004C6F6748616E646C657200617070002523
:106B2C003031307520005D20002564002C200028B9
:106B3C00293A2000205B00636F6465203D2000250E
:106B4C00690064657461696C73203D20000D0A0056
:106B5C0066006C6E00666E00636F6465006465743D
:106B6C0061696C006E6F6E650074726163650069BB
:106B7C006E666F007761726E006572726F72007074
:106B8C00616E696300616C6C00252B3033643A25AF
:106B9C003032750025592D256D2D25645425483A24
:106BAC00254D3A2553257A0061736374696D650030
:106BBC000000000000000000294F0D002F4F0D00B9
:106BCC00734F0D003D4F0D002B4F0D0000000000CA
:106BDC0000000000C1540D00B1540D00B3540D0061
:106BEC00000000000000000099550D00E9550D0053
:106BFC00F7550D009D4B0D00D5550D009B550D0007
:106C0C00B1550D00E3550D00C7550D0095550D0000
:106C1C00000000000000000003570D00F9560D00A5
:106C2C00EF560D00A5560D00E3560D00D7560D007E
:106C3C00CB560D00C3560D00B9560D00AF560D00C6
:106C4C00ED5A0D0000000000000000003D570D0043
:106C5C008D570D009B570D009D4B0D0051570D008E
:106C6C0073570D005F570D0087570D003F570D00F0
:106C7C0043570D0000000000000000009D580D005F
:106C8C00E7580D00BF580D009F580D00C7580D0058
:106C9C00CF580D00D7580D00DF580D000000000034
:106CAC00000000007F590D0075590D006B590D0047
:106CBC0061590D0055590D0049590D003D590D00F4
:106CCC0035590D002B590D0021590D00ED5A0D00B1
:106CDC000000000000000000855A0D008F5A0D00C6
:106CEC00995A0D00A35A0D00AD5A0D00B95A0D005A
:106CFC00C55A0D00D15A0D00D95A0D00E35A0D009A
:106D0C00ED5A0D00002020202020202020202828B3
:106D1C00282828202020202020202020202020204F
:106D2C00202020202088101010101010101010108F
:106D3C0010101010100404040404040404040410BF
:106D4C00101010101010414141414141010101014D
:106D5C000101010101010101010101010101010117
:106D6C001010101010104242424242420202020223
:106D7C0002020202020202020202020202020202E7
:106D8C001010101020000000000000000000000097
:106D9C0000000000000000000000000000000000E7
:106DAC0000000000000000000000000000000000D7
:106DBC0000000000000000000000000000000000C7
:106DCC0000000000000000000000000000000000B7
:106DDC0000000000000000000000000000000000A7
:106DEC000000000000000000000000000000000097
:106DFC000000000000000000000000000000000087
:106E0C000000000000000000000000000000000076
:106E1C000000000000000000000000000000000066
:106E2C000000000000000000000000000000000056
:106E3C000000000000000000000000000000000046
:106E4C000000000000000000000000000000000036
:106E5C000000000000000000000000000000000026
:106E6C000000000000000000430000001F000000B4
:106E7C001C0000001F0000001E0000001F0000008E
:106E8C001E0000001F0000001F0000001E0000007C
:106E9C001F0000001E0000001F0000001F0000006B
:106EAC001D0000001F0000001E0000001F0000005D
:106EBC001E0000001F0000001F0000001E0000004C
:106ECC001F0000001E0000001F000000545A004765
:106EDC004D54002531305B5E302D392C2B2D5D252A
:106EEC006E004D256875256E2E256875256E2E2530
:106EFC006875256E002F256875256E3A25687525F1
:106F0C006E3A256875256E00C9430D000D490D00BC
:106F1C0091490D008D4B0D00ED4C0D00E14D0D0018
:106F2C00394E0D000D570D00355A0D00B95B0D0093
:106F3C00915C0D00295D0D00AD5D0D00715E0D00C5
:046F4C00355F0D00A0
:106F500007000000050000003C000000B46B0D00BD
:106F6000106D0D0000000000146E0D00346E0D0059
:106F7000546E0D0000000000000000000000000042
:106F800000000000746E0D00000000000000000012
:106F900000000000000000000000000000000000F1
:106FA00000000000000000000000000000000000E1
:106FB00000000000000000000000000000000000D1
:106FC000000000006CE20320DB6E0D00DB6E0D00A4
:106FD00001000000000000004A0000000000000066
:106FE00000000000000000000000000000000000A1
:106FF000000000004A000000000000000000000047
:107000000000000000000000000000000000000080
:04701000ECE7032086
:10701400FFFFFFFF00000102030405060708090A39
:107024000B0C0D0E0F101112131415161718191A34
:087034001B1C1D1E1F2028007B
:04703C00785634123C
:04000003D000401CCD
:00000001FF
