:02000002D0002C
:1040000000400D0028770D00000006000D0005019E
:0840100004017E050000000020
:0440180074700D00B3
:10401C0009480A49884208B505D0094A824202D0AB
:10402C00121A02F0EBFE0748074A0021121A02F09E
:10403C000BFF014808BD00BFACE2032070760D00F9
:10404C0038E3032038E30320F0E7032070B501F0D8
:10405C002DFE074C074BE41AA40800251E46A5426A
:10406C0004D056F8253098470135F8E770BD00BFED
:10407C0068760D002C760D0000F02EBA08B500F015
:10408C0093FCBDE8084001F0DFBD01F0B1B801F0D0
:10409C00B7B801F0B5B80078B0FA80F040097047B5
:1040AC0001230370704708B501F06AF820B10020B5
:1040BC00BDE8084001F084B808BD002211464068F4
:1040CC0001F00EB87FB50C466749054601F025FB9B
:1040DC00B0B102F09DF965490546684601F033FA26
:1040EC002146684601F0FBFA0168284601F029FCDC
:1040FC00684601F0E1F9204601F0DAFB5C4B36E052
:10410C005C49284601F009FBB0B102F081F95A492B
:10411C000546684601F017FA2146684601F0DFFAB9
:10412C000168284601F00DFC684601F0C5F92046EF
:10413C0001F0BEFB514B1AE05149284601F0EDFA53
:10414C00B8B102F065F94F490546684601F0FBF934
:10415C002146684601F0C3FA0168284601F0F1FBDC
:10416C00684601F0A9F9204601F0A2FB464B186005
:10417C0076E04649284601F0D0FAB0B102F048F991
:10418C0043490546684601F0DEF92146684601F0D0
:10419C00A6FA0168284601F0D4FB684601F08CF9B8
:1041AC00204601F085FB3B4BE1E73B49284601F0FB
:1041BC00B4FAE8B102F02CF938490546684601F02A
:1041CC00C2F92146684601F08AFA0168284601F0D6
:1041DC00B8FB684601F070F9204601F069FB42F229
:1041EC000F7398422E4BC2DC42F210721A6037E009
:1041FC002C49284601F091FAD0B102F009F92A496C
:10420C000546684601F09FF92146684601F067FAB9
:10421C000168284601F095FB684601F04DF92349E9
:10422C00204601F07AFAD8B1214B01221A7017E01E
:10423C0002F0EEF81F490646684601F084F929465B
:10424C00684601F04CFA1C4901F055FA214601F080
:10425C0046FA0168304601F074FB684601F02CF90F
:10426C00012004B070BD00BF88700D008B700D0074
:10427C00C4E20320A5700D00A8700D00B8E2032065
:10428C00C1700D00C4700D00C8E20320E0700D0079
:10429C00E3700D00BCE20320FD700D0000710D00F9
:1042AC00ACE2032015710D0018710D002B710D007F
:1042BC0050E3032030710D0072710D0070B59CB08D
:1042CC000546534914A801F03EF9524918A801F0CB
:1042DC003AF918AA14A9284601F063FA01462846AF
:1042EC0001F061F918A801F0E7F814A801F0E4F85E
:1042FC004849684601F027F9464904A801F023F91A
:10430C00444908A801F01FF900240126424908A8D5
:10431C0001F003FAD8B92146284601F019FA0146F2
:10432C0018A801F07BF918A908A801F05EF918A8E3
:10433C0001F0C2F8394908A801F0EFF9002840D182
:10434C00374908A801F0E9F9002830D039E069466E
:10435C0014A801F037F930490CA801F0F4F82D49F4
:10436C0010A801F0F0F810AA0CA904A801F019FA91
:10437C00014618A801F026F918A914A8FFF7A2FE07
:10438C0018A801F099F810A801F096F80CA801F003
:10439C0093F814A801F090F808A801F08DF804A87F
:1043AC0001F08AF8684601F087F81CB070BD16B1B0
:1043BC0008A9684601E008A904A801F07DF90134B8
:1043CC00A4E7164908A801F0A8F908B10026F6E7F9
:1043DC00694614A801F0F6F804A918A801F0F2F83F
:1043EC0018A914A8FFF76EFE064618A801F064F889
:1043FC0014A801F061F8002ECED00649684601F0F1
:10440C00FCF8044904A801F0F8F80126D7E700BF2E
:10441C0044710D00DB720D0046710D0072710D00C0
:10442C00B0710D002DE9F843254C00231A461946AE
:10443C00606800F05DFE00236068224C1A46194645
:10444C0000F036FE0020266800F0ECFC4FF000096E
:10445C0080460027002000F0E5FCB0EB080061EB83
:10446C000901B94208BFB04206D21548FFF725FE34
:10447C0010B900F06DFEEDE71148FFF71EFE00F0DD
:10448C006FFE0020246800F0CDFC002706460025B6
:10449C00002000F0C7FC801B61EB0701A94208BF9C
:1044AC00A04202D200F06CFE30B100F069FE04486C
:1044BC00FFF703FEBDE8F88300F04AFEE8E700BF13
:1044CC00E8E30320ACE2032008B5FFF7ABFFBDE83F
:1044DC000840FFF7E8BD000030B58BB001F098FF45
:1044EC004FF4165101F088FF1F4D204C40F6B830A8
:1044FC0001F0CCFA0021042002F09CFA288801215A
:10450C0002F098FA2088012102F094FA2888002100
:10451C0002F0A1FA0021208802F09DFAFFF7D4FFE7
:10452C0001F0A2FA124B186002A800F031FE02A9A9
:10453C0006A801F047F80F4906A801F0DCF80023A3
:10454C00019300931A460C49006800F031FE06A84E
:10455C0000F0B2FF02A800F0AFFF01F059FF0749CD
:10456C0001F0EFF90BB030BD98E30320B0E203206B
:10457C007CE3032048710D0055490D005E710D0060
:10458C0010B500F0F5FD00F0FBFD044650B900F04D
:10459C00F7FD06482346224621464068BDE81040F8
:1045AC0000F0AEBD00F0D4FDEDE700BFE8E3032062
:1045BC0038B5046805467CB16368013B63605BB940
:1045CC00236820469B689847A368013BA3601BB9EE
:1045DC0023682046DB689847284638BD30B5A5B01F
:1045EC00FFF720FF002800F0D080FFF75CFD4FF4B0
:1045FC00FA6001F04BFA68491AA801F05FFF1C9CA5
:10460C0001F006FF6549054616A800F09CFF0A223A
:10461C00214612A801F013F812A916A801F05FF8B0
:10462C000168284601F08DF912A800F045FF16A884
:10463C0000F042FF01F018FA0A22014612A801F01C
:10464C0011F812A916A800F0BDFF554916A801F0E3
:10465C0052F8014602A800F0B5FF16A800F02CFF96
:10466C0012A800F029FF4F490AA800F06CFF4E4B2E
:10467C000A22196806A800F0E2FF06A90AA801F0B0
:10468C002EF84A4901F037F8494B0A2219680546B9
:10469C000EA800F0D4FF0EA9284601F020F84549D9
:1046AC0001F029F8444B0A221968054612A800F0BB
:1046BC00C6FF12A9284601F012F8404901F01BF878
:1046CC003F4B0A221968054616A800F0B8FF16A938
:1046DC00284601F004F8014602A800F0EDFF16A8E8
:1046EC0000F0EAFE12A800F0E7FE0EA800F0E4FECF
:1046FC0006A800F0E1FE0AA800F0DEFE314916A87B
:10470C0000F021FF304B0A22196812A800F097FF25
:10471C0012A916A800F0E3FF2C4900F0ECFF2C497D
:10472C0000F0DDFF014602A800F0C6FF12A800F061
:10473C00C3FE16A800F0C0FE264916A800F003FF21
:10474C000A22214612A800F07AFF12A916A800F03E
:10475C00C6FF014602A800F0AFFF12A800F0ACFEA5
:10476C0016A800F0A9FE1C4B029A1B781B498DF869
:10477C00003016A83C2301F0F5FB17A8FFF718FF33
:10478C00FFF7FEFE02A800F097FE01F06DF9144B46
:10479C003C30186025B030BDE8E3032090710D006B
:1047AC0067710D0070710D00B8E2032074710D007B
:1047BC00C4E2032079710D00C8E203207E710D0064
:1047CC00BCE2032083710D00ACE2032088710D0064
:1047DC0084E303208E710D0078E3032057710D00E4
:1047EC0054E3032010B59AB0FFF71CFE002800F02C
:1047FC008E8001F039F90A22014616A800F032FF2A
:10480C0016A912A800F0DEFE424912A800F073FFB0
:10481C00014602A800F0D6FE12A800F04DFE16A824
:10482C0000F04AFE3C4906A800F08DFE3B4B0A22E4
:10483C0019680AA800F003FF0AA906A800F04FFFA8
:10484C00374900F058FF374B0A22196804460EA866
:10485C0000F0F5FE0EA9204600F041FF324900F0B1
:10486C004AFF324B0A221968044612A800F0E7FEF0
:10487C0012A9204600F033FF2D4900F03CFF2D4BD0
:10488C000A221968044616A800F0D9FE16A920467B
:10489C0000F025FF014602A800F00EFF16A800F05C
:1048AC000BFE12A800F008FE0EA800F005FE0AA8E8
:1048BC0000F002FE06A800F0FFFD1F4912A800F050
:1048CC0042FE1E4B0A22196816A800F0B8FE16A963
:1048DC0012A800F004FF014602A800F0EDFE16A895
:1048EC0000F0EAFD12A800F0E7FD154B029A1B78C8
:1048FC0014498DF8003016A83C2301F033FB17A89F
:10490C00FFF756FEFFF73CFE02A800F0D5FD1AB0EB
:10491C0010BD00BF97710D0070710D00B8E203203F
:10492C0074710D00C4E2032079710D00C8E20320FC
:10493C007E710D00BCE2032083710D00ACE20320FC
:10494C0078E303209F710D001FB5684600F0FBFD56
:10495C006846FFF7B3FC684600F0AEFDFFF742FF78
:10496C0005B05DF804FB00001FB50C4B1B7804462A
:10497C008BB1FFF757FD70B1094B22681B788DF88E
:10498C00003008493C2302A801F0ECFA03A8FFF719
:10499C000FFEFFF7F5FD04B010BD00BF50E3032080
:1049AC0078E303209F710D002DE9F04397B001F0DF
:1049BC005BF8A14FA149386006A800F0C4FDA04BDC
:1049CC00A04C1D787DB901221A7029462A4612A8DE
:1049DC00129500F02FFA129B1E2B04D10323237087
:1049EC0008236580A3802068A388049004A8ADF8F0
:1049FC00143000F0BFFC944C18B92378002B00F055
:104A0C000E81924B924A1B681268002626703C2439
:104A1C0004FB032401F028F8844202DAFFF7DEFDE0
:104A2C000126DFF880928B4C3B68D9F80020216876
:104A3C009A1A3C234B439A42C0F29680DFF860826C
:104A4C008549864D864F12A800F07DFD0A22D8F8C4
:104A5C0000100EA800F0F3FD0EA912A800F03FFE06
:104A6C000146804800F028FE0EA800F025FD12A893
:104A7C0000F022FD704A2B681268C9F800207A4AAF
:104A8C0011683A6801334A4393422B6007DA774B3B
:104A9C001B68012B65D1D8F80030002B61DD002E8E
:104AAC005FD1FFF7BFFC002858D000F0DDFF2A686B
:104ABC0021686F4F4FF03C09531E09FB01F103FBBA
:104ACC0011010A2212A800F0CDFD12A9384600F0FF
:104ADC0084FD12A800F0F0FC6649384600F0F0FDA9
:104AEC000A22216812A800F0AAFD12A9384600F08B
:104AFC00E3FD12A800F0E0FC5A49384600F0DCFD5A
:104B0C005D4B5E491B788DF800303A684B4612A815
:104B1C0001F028FA13A8FFF74BFD01F079FC584976
:104B2C00814612A800F00FFD39460EA800F04AFD90
:104B3C000EA912A800F0D3FD0168484600F001FF51
:104B4C000EA800F0B9FC12A800F0B6FC4D4945487F
:104B5C0000F053FD2E60FFF713FD02E03B680133BC
:104B6C003B600023C8F800304749484F484E06A820
:104B7C0000F0D3FD00282FD024683C2303FB04F560
:104B8C0000F072FF3C684349001B2C1A0EA800F081
:104B9C00DAFC0A2221460AA800F051FD0AA90EA847
:104BAC0000F09DFD014612A800F00CFD12A8FFF7C5
:104BBC00DBFE12A800F080FC0AA800F07DFC0EA819
:104BCC0000F07AFC022233688DF82820012202932F
:104BDC00019400920AAB18E000F046FF2E493860B1
:104BEC0012A800F0B0FC12A8FFF7BEFE12A800F04D
:104BFC0063FC22683C235343326802920221012257
:104C0C0001938DF8381000920EAB244912A800F0D5
:104C1C008BFB06A800F050FC17B0BDE8F083204ACF
:104C2C001949136806A80133136000F0E6FCC8208C
:104C3C0000F02CFFE5E600BF9CE30320A7710D00FC
:104C4C003CE30320A8E30320B4E20320C8E20320E2
:104C5C0054E30320B8E20320B0710D0070E303208D
:104C6C00C0E2032040E30320C4E20320BCE20320A3
:104C7C0060E30320AB710D0078E303209F710D00FE
:104C8C00B2710D00DB720D00C1710D0094E30320B5
:104C9C0080E30320C5710D00DB710D00B6E203202B
:104CAC0074E303207CE303202DE9F843234BDFF866
:104CBC00A480234E234DDFF8A09000241C60224BCF
:104CCC0001271F7000F05EF82049404600F03BFCC5
:104CDC004046DFF888803246294601F017FF4946E6
:104CEC00404600F030FC4046DFF8748032462946DE
:104CFC0001F00CFF4946404600F025FC324629469F
:104D0C00404601F003FF01F059FE2346224642F6CD
:104D1C007A1101F05BFE01F051FE23462246394622
:104D2C0001F05CFE0A4B4FF6FF721C705C809A809F
:104D3C000320BDE8F84300F075B900BF80E3032001
:104D4C0038E30320C5540D0078E30320E8710D000F
:104D5C0058E3032084E30320DB720D0040E30320BF
:104D6C0060E3032008B5024B1B689B68019308BDE8
:104D7C006802030008B5024B1B68DB68019308BD91
:104D8C006802030008B5024B1B681B68019308BD41
:104D9C002C02030008B5024B1B689B68019308BDED
:104DAC002C02030008B5024B1B68DB68019308BD9D
:104DBC002C02030008B5024B1B681B69019308BD4C
:104DCC002C02030008B5024B1B68DB69019308BD7C
:104DDC003002030008B5024B1B681B6A019308BD27
:104DEC003002030008B5024B1B685B68019308BDD9
:104DFC001802030008B5024B1B685B69019308BDE0
:104E0C001802030008B5024B1B68DB69019308BD4F
:104E1C001802030008B5024B1B689B6D019308BD7B
:104E2C001802030008B5024B1B68DB6D019308BD2B
:104E3C001802030008B5024B1B68DB6E019308BD1A
:104E4C003402030008B5024B1B689B68019308BD34
:104E5C004802030008B5024B1B681B69019308BD8F
:104E6C004802030008B5024B1B685B69019308BD3F
:104E7C004802030008B5024B1B681B6B019308BD6D
:104E8C004802030008B5024B1B685B6C019308BD1C
:104E9C004802030008B5024B1B685B69019308BD0F
:104EAC006402030008B5024B1B681B68019308BD24
:104EBC003C02030008B5024B1B68DB68019308BD7C
:104ECC003C02030008B5024B1B681B69019308BD2B
:104EDC003C02030008B5024B1B685B69019308BDDB
:104EEC003C02030008B5024B1B689B69019308BD8B
:104EFC003C02030008B5024B1B68DB69019308BD3B
:104F0C003C02030008B5024B1B681B6A019308BDE9
:104F1C003C02030008B5024B1B689B6A019308BD59
:104F2C003C02030008B5024B1B681B6A019308BDC9
:104F3C002802030008B5024B1B685B6A019308BD8D
:104F4C002802030008B5024B1B689B6A019308BD3D
:104F5C002802030008B5024B1B68DB6A019308BDED
:104F6C002802030008B5024B1B681B6B019308BD9C
:104F7C002802030008B5024B1B685B6B019308BD4C
:104F8C002802030008B5024B1B681B6C019308BD7B
:104F9C002802030008B5024B1B685B6C019308BD2B
:104FAC007402030008B5024B1B681B68019308BD13
:104FBC004C02030008B5024B1B685B68019308BDEB
:104FCC004C02030008B5024B1B681B69019308BD1A
:104FDC004C02030008B5024B1B685B69019308BDCA
:104FEC004C02030008B5024B1B689B69019308BD7A
:104FFC004C02030008B5024B1B68DB69019308BD2A
:10500C004C02030008B5024B1B681B6A019308BDD8
:10501C004C02030008B5024B1B681B68019308BDCA
:10502C002002030008B5024B1B685B68019308BDA6
:10503C002002030008B5024B1B685B69019308BD95
:10504C002002030008B5024B1B68DB6C019308BD02
:10505C002002030008B5024B1B685B6D019308BD71
:10506C002002030008B5024B1B689B6D019308BD21
:10507C002002030008B5034B1B68D3F8883001935A
:10508C0008BD00002002030008B5034B1B68D3F8D1
:10509C009430019308BD00002002030008B5034BB7
:1050AC001B68D3F8A030019308BD00002002030058
:1050BC0008B5024B1B685B68019308BD40020300F6
:1050CC0008B5024B1B689B68019308BD40020300A6
:1050DC0008B5024B1B68DB68019308BD4002030056
:1050EC0008B5024B1B681B69019308BD4002030005
:1050FC0008B5024B1B685B69019308BD40020300B5
:10510C0008B5024B1B689B69019308BD4002030064
:10511C0008B5024B1B68DB69019308BD4002030014
:10512C0008B5024B1B681B6A019308BD40020300C3
:10513C0008B5024B1B681B6B019308BD40020300B2
:10514C0008B5024B1B685B6B019308BD4002030062
:10515C0008B5024B1B689B68019308BD4402030011
:10516C0008B5024B1B68DB68019308BD44020300C1
:10517C0008B5024B1B681B69019308BD4402030070
:10518C0008B5024B1B685B69019308BD4402030020
:10519C0008B5024B1B68DB69019308BD4402030090
:1051AC0008B5024B1B681B6A019308BD440203003F
:1051BC0008B5024B1B685B6A019308BD44020300EF
:1051CC0008B5024B1B68DB6A019308BD440203005F
:1051DC0008B5024B1B681B6B019308BD440203000E
:1051EC0008B5024B1B68DB6B019308BD440203003E
:1051FC0008B5024B1B681B68019308BD1C02030019
:10520C0008B5024B1B685B68019308BD1C020300C8
:10521C0008B5024B1B689B68019308BD1C02030078
:10522C0008B5024B1B68DB6A019308BD1C02030026
:10523C0008B5024B1B681B6B019308BD1C020300D5
:10524C00002211464068FFF76BBF002211464068F0
:10525C00FFF776BF00224068FFF76ABF002281F09B
:10526C0001014068FFF754BF00231A4619464068F5
:10527C00FFF746BF00231A4619464068FFF738BFB0
:10528C00002211464068FFF72BBF002211464068F0
:10529C00FFF716BF002202214068FFF719BF002359
:1052AC001A464068FFF704BF024B03225A60024AB9
:1052BC001A607047A0E30320F8710D00704710B519
:1052CC001021044601F027FC204610BD70B5084B98
:1052DC000360044600250E4640F80C5FFFF7CAFD3C
:1052EC0030462671FFF76EFDA560204670BD00BFED
:1052FC002C720D000079FFF76DBD10B50024047001
:10530C00448000294FF6FF74848007DD01399942EF
:10531C0009D232F811308380012301E002D102233B
:10532C00037010BD418010BD70B586B016461A468C
:10533C00002302930C9B01930D460B9B0093044698
:10534C000A9B31462846FFF7A9FE33462A460146FA
:10535C0004A8FFF7D2FF064B0498BDF81420186080
:10536C009A801A689B8822602046A38006B070BD84
:10537C00A8E303200078023801288CBF002001200C
:10538C0070470000044B00204FF6FF7218705880D5
:10539C009A80FFF747BE00BFA8E3032010B5044670
:1053AC0001F0AFFD013823182046984206D202784E
:1053BC00197800F8011B03F80129F6E710BD2DE957
:1053CC00F041931E232B15468CB034BF15460A258D
:1053DC0000230A2D0C468DF82C3007D1984205DAA3
:1053EC002D2301F101080B70404201E0B0B1A04641
:1053FC000DF12B0601272A46014601A801F0EAFC13
:10540C00029B0198092BCCBF3722302252FA83F32E
:10541C0006F8013901370028EDD106E030238DF86C
:10542C002B30A0460DF12A0602273A46711C404645
:10543C0001F0E4FC20460CB0BDE8F08170B50C46E0
:10544C00911E222920D82546294610B92344302202
:10545C000EE0B0FBF2F602FB1600C1B205F8011B20
:10546C00092894BF3031573105F8011C3046EBE761
:10547C00994202D201F8012BFAE7002320460B7067
:10548C00FFF78CFF204670BD002070BD38B5031EA1
:10549C000C4615460BDAB3F1004F4FF02D0214BF3A
:1054AC005842184601230A702A46194400E0012389
:1054BC00FFF7C4FF204638BD10B504460068FFF75F
:1054CC009FFE204610BD10B50446006808B1FFF7DA
:1054DC0097FE00232360A360636010BD38B50446BB
:1054EC000D4600680131FFF793FE10B184E82100EE
:1054FC00012038BD10B50368044613B143688B42D4
:10550C0007D22046FFF7EAFF20B1A3680BB9226847
:10551C001370012010BD70B50E4611460446154699
:10552C00FFF7E8FF18B92046FFF7CDFF09E02A4640
:10553C003146A560206801F061FC2268A368002157
:10554C00D154204670BD38B5002304460360436037
:10555C00836003730D4639B1084601F0D2FC29462D
:10556C0002462046FFF7D7FF204638BD38B5054622
:10557C0000680C4660B16A688B689A4206D3096869
:10558C0001F09CFCA368AB6000230AE0FFF738FE37
:10559C0023682B6063686B60A368AB600023236097
:1055AC006360A36038BD884210B50B46044607D033
:1055BC00096819B19A68FFF7AEFF01E0FFF783FFA6
:1055CC00204610BD10B50023044603604360836081
:1055DC000373FFF7E8FF204610BD884210B5044660
:1055EC0001D0FFF7C3FF204610BD884210B504461A
:1055FC0001D0FFF7BBFF204610BD38B505460C4661
:10560C0041B1084601F07DFC214602462846FFF7D1
:10561C0082FF01E0FFF757FF284638BD13B5002382
:10562C008DF80410036043608360037301A9044682
:10563C008DF80530FFF7E1FF204602B010BD10B524
:10564C00044600238AB023606360A360237308467A
:10565C0001A9FFF71BFF01A92046FFF7CEFF20464B
:10566C000AB010BD10B5044600238AB023606360F5
:10567C00A3602373084601A9FFF7A1FE01A92046E8
:10568C00FFF7BBFF20460AB010BD70B504460E46AE
:10569C0009B9002070BD6AB18368D5182946FFF797
:1056AC0029FF0028F5D02068A3683146184401F082
:1056BC0005FCA560012070BD8A680968FFF7E5BF8D
:1056CC0038B505460C46084641B101F01AFC214696
:1056DC0002462846BDE83840FFF7D7BF38BD10B5A5
:1056EC008A6809680446FFF7D0FF10B92046FFF717
:1056FC00EAFE204610BD38B504460D4641B10846B9
:10570C0001F0FFFB294602462046FFF7BEFF10B909
:10571C002046FFF7D8FE204638BD08B582680B46F8
:10572C0012B919B9012008BD11B90368187802E043
:10573C00006801F0B9FBB0FA80F0400908BD83683D
:10574C008B4203D9006810B1405C70470020704751
:10575C00FFF7F5BF2DE9F04115468A680F46CAB12F
:10576C008368BBB19A4215D80668AB4298BF03F167
:10577C00FF3530464FF0FF3406EB050840450DD899
:10578C00396801F0C6FB48B1831B9D4228BF1C46FB
:10579C000130F3E74FF0FF30BDE8F0812046BDE863
:1057AC00F0812DE9F74FD0F808A00546884616463B
:1057BC00BAF1000F78D0D1F808B0BBF1000F73D05C
:1057CC0097680468CBEB0707002F0ED12046D8F85A
:1057DC00001001F09EFB0446002865D0B2683168C9
:1057EC0001F00CFBB0680444F0E722DAA146D8F8CB
:1057FC000010204601F08DFB8346A8B1C4EB000AD3
:10580C00214652464846D14401F0F8FA4846B2685F
:10581C00316801F0F3FAB368D8F808409944AB68E2
:10582C003B445C44AB60E2E72146484601F046FB52
:10583C003AE00B68D14619462046019301F069FB0A
:10584C0020B100EB0B04B944019BF4E7D1452BD0FC
:10585C006B68994504D949462846FFF73FFE18B3B3
:10586C00AA684FF00009013A002A1DDB4146284680
:10587C00FFF770FF041E17DBD8F808302968AA68F8
:10588C0023441944D21AC81901F0C3FAAB682A6828
:10589C003B44AB6002F803902868B268316820443E
:1058AC0001F0ACFA621EDFE7284603B0BDE8F08FCA
:1058BC00006808B101F07CBA70470B68036013B143
:1058CC005A6801325A607047024800230360FFF7A0
:1058DC00D9BA00BFB0E30320F8B506460D468F18C1
:1058EC000024BD420CD0336815F8011B9B68304670
:1058FC009847002801DB0444F3E7002C08BF04465A
:10590C002046F8BD70B505460C46084649B101F075
:10591C00F8FA2B68024621462846DB68BDE8704041
:10592C00184770BD03689B68184738B50D210546AC
:10593C00FFF7F8FF0A2104462846FFF7F3FF20443F
:10594C0038BD38B50546FFF7DDFF04462846FFF79E
:10595C00ECFF204438BD30B58BB00B4600218DF8E0
:10596C002410012A98BF0A220DF12304B3FBF2F58F
:10597C0005FB123303F0FF03092B94BF303337338D
:10598C00DBB2214604F801392B46002DEED1FFF78E
:10599C00B9FF0BB030BD10B42AB903685DF8044BE5
:1059AC009B68C9B21847D2B25DF8044BFFF7D3BF5E
:1059BC00FFF7F1BF2DE9F04107460E4615462AB90F
:1059CC000368C9B29B68BDE8F04118470A2A02D1A6
:1059DC00002901DA04E0D2B2BDE8F041FFF7BBBF09
:1059EC002D21FFF79FFF2A46044671423846FFF7E8
:1059FC00B2FF2044BDE8F081FFF7DCBF014B024A47
:105A0C001A607047B4E30320A7720D0008B500209C
:105A1C00FFF7DEFB28B1FFF7B3FB80F00100C0B24B
:105A2C0008BD012008BD10B50020FFF7F3F90446AE
:105A3C0068B9FFF7EFFA01280BD12046FFF712FBEC
:105A4C0038B9FFF7E3FF30B9FFF782FBF9E7012024
:105A5C0010BD002010BDFFF7D9FF0020FFF7DAF9C9
:105A6C00003018BF012010BD08B5FFF7DCFFBDE802
:105A7C000840FFF7C7B90000024B1A68024B1A60C6
:105A8C00704700BFCCE20320B8E303200021FFF7EE
:105A9C00D1BA10B58368044613B103220146984766
:105AAC00204610BD10B50446FFF7F3FF204610BD8D
:105ABC0013B50B46044603C88DE8030093E80300B6
:105ACC0084E803009DE8030083E8030002B010BDE6
:105ADC000348044A04490023836001F017B800BF4F
:105AEC00BCE3032038E30320B15A0D007047007D5E
:105AFC0070470000037D1BB18369B3F1004F02D1E5
:105B0C009FED050A704707EE903A9FED047AF8EE88
:105B1C00E77A87EE870A7047000000000000C84251
:105B2C00037D1BB1036AB3F1004F02D19FED050A4F
:105B3C00704707EE903A9FED047AF8EEE77A87EE1D
:105B4C00870A7047000000000000C84270B50D467F
:105B5C0006460A2281682846FFF74EFF2C21044690
:105B6C002846FFF7DFFE0A220444F1682846FFF7B7
:105B7C0043FF204470BDA0F10400FFF7E7BF10B550
:105B8C002821044600F0C7FF204610BD037D7BB1E1
:105B9C00436A002B0CDB07EE903ADFED076A9FEDB2
:105BAC00070AB8EEE77AC7EE267A27EE800A704726
:105BBC00BFEE000A704700BF00FF7F470000C842DD
:105BCC00037D7BB1C369002B0CDB07EE903ADFED54
:105BDC00076A9FED070AB8EEE77AC7EE267A27EE3A
:105BEC00800A7047BFEE000A704700BF00FF7F4776
:105BFC000000C84230B50D4600F110040FCD0FC4A3
:105C0C0095E8030084E80300012030BD08B50C4B77
:105C1C0033B100F0FDFB03681B699847002809DCD1
:105C2C00084B63B100F0F8FC03681B699847002827
:105C3C0003DC08BDAFF30080F2E7AFF3008008BDD2
:105C4C00000000000000000008B5FFF7DFFFFFF7C1
:105C5C00D1F8014B186008BD34E7032007B50023C9
:105C6C0000931A466FF07701FFF70EFA03B05DF858
:105C7C0004FB000007B543880A2B08D0502B09D130
:105C8C00094B1B683BB103B05DF804EB1847FFF7F9
:105C9C00E5FF06E0002300931A466FF07701FFF74B
:105CAC00F3F903B05DF804FBCCE3032010B5FFF768
:105CBC0099F8044601F0D0F8074B13B12046AFF326
:105CCC00008000210448FFF78BFA00210348BDE84F
:105CDC001040FFF7CFB900BF00000000815C0D0041
:105CEC0070470020704710B51021044600F013FFD8
:105CFC00204610BD08B508B1FFF7F5FF08BD00221E
:105D0C00026010B54FF69C728280B1F90440848019
:105D1C008A8002680C6804600A6010BD10B50446E5
:105D2C000068FFF76DFA204610BD38B5C468F4B1B1
:105D3C002378022B03D104F10C00FFF7EFFF656809
:105D4C0035B12846FFF7A5FE1021284600F0E3FEEA
:105D5C00A56835B12846FFF79CFE1021284600F0B7
:105D6C00DAFE20461421BDE8384000F0D4BE38BD20
:105D7C0013B5044691E8050000234B600B602060CE
:105D8C00626001A801930093FEF712FC204602B05A
:105D9C0010BDF7B50C4602AD54F8043B45F8083D70
:105DAC0006460F4601A82146FFF787FD29463046D7
:105DBC00FFF7DEFF01A8FEF7FBFB2046FEF7F8FB22
:105DCC003846082100F0A7FE304603B0F0BD0000B5
:105DDC0038B500230446036010200D46FEF755F934
:105DEC0028B1012343608360024B0360C5602060CF
:105DFC00204638BD7C730D00826810B50AB900F0DE
:105E0C008CFEC368BDE81040184708B5006800F167
:105E1C001001FFF7F1FF08BD826810B50AB900F058
:105E2C007CFEC368BDE81040184708B5006800F157
:105E3C001001FFF7F1FF08BD38B5002383608B68B4
:105E4C0004460D462BB102229847EB68E360AB6821
:105E5C00A360204638BD0000F0B589B004686846E0
:105E6C00FFF74DFF00238DF808304FF00202D4E805
:105E7C004F3F002B03D1C4E8412F0029F7D102D0AA
:105E8C008DF8083063E014F10C0503D06946284600
:105E9C00FFF735FFBFF35F8F01236370002004F120
:105EAC000803BFF35F8F53E8006F43E80002002A3A
:105EBC00F9D1BFF35F8F002E49D0FFF7C3F820B1A3
:105ECC0029463046FFF798FF3AE0314602A8FFF723
:105EDC00B3FFE068B4F9105008B100F0F7FF06907A
:105EEC001020ADF81C50FEF7D0F80546E8B100279D
:105EFC0087601820FEF7C9F8044688B10146876010
:105F0C0002A8FFF7D5FD049BA268A360059B049231
:105F1C0006A9E268E36004F110000592FFF7EFFEBA
:105F2C000D4BEB600D4B2C60AB6006A8FFF7F6FE3B
:105F3C0002A8FFF7AEFD002229460948FFF78AF8B0
:105F4C003046FFF7A6FD1021304600F0E4FD684610
:105F5C00FFF7E4FE09B0F0BD175E0D008D600D007B
:105F6C0071660D002DE9F04F8BB006460F4690463A
:105F7C0099469DF850A0FFF703F907AD834630BB57
:105F8C004FF62E73059005A92846ADF81830FFF78B
:105F9C00B6FE1420FEF779F8044658B102230370BC
:105FAC0001234370C0F804B0C0F808B029460C3087
:105FBC00FFF7A5FE3046214640F8044BFFF708FFDB
:105FCC002846FFF7ABFE05A8FFF7A8FE52E0002419
:105FDC000C2314206C60AC600793FEF756F8014656
:105FEC0018B1047044704460846004A80391FFF7F6
:105FFC00EFFE224B08930820FEF747F8044628B121
:10600C00039B40F8043B04A9FFF757FC00955FFA8B
:10601C008AF34A46414638460994FFF7C1F820B93D
:10602C00039B5B7803F0FF0283B1039B059304A9E8
:10603C0006A8FFF742FC05A93046FFF799FE06A813
:10604C00FEF7B6FA04A8FEF7B3FA13E04FF69C730A
:10605C0005A903A80592ADF81830FFF7FDFE05A8B9
:10606C00FFF75CFE05A80999FFF793FE06A8FEF75B
:10607C009FFADAE730460BB0BDE8F08FFD610D00FA
:10608C00022AF8B5044606D0032A17D0012A22D1D9
:10609C000B6803601FE018200E68FDF7F6FF05463D
:1060AC0050B13146FFF7C8FE3069B6F9147008B12B
:1060BC0000F00CFF2861AF8225600CE0046854B13D
:1060CC0004F11000FFF72AFE2046FFF7E2FC18212E
:1060DC00204600F020FD0020F8BD38B50023836079
:1060EC008B6804460D462BB102229847EB68E3609F
:1060FC00AB68A360204638BD022A70B5044606D0B2
:10610C00032A11D0012A18D10B68036015E0142062
:10611C000E68FDF7BAFF054620B13146FFF7DDFFEB
:10612C00337C2B74256008E0046834B12046FFF7FB
:10613C00B0FC1421204600F0EEFC002070BD0000E5
:10614C00F0B5002387B00C46BFF35F8F50E8006FAB
:10615C0040E80032002AF9D1BFF35F8F002E3FD008
:10616C001846FEF76FFF074620B121463046FFF771
:10617C0053FE2EE0314601A8FFF7AFFF23788DF8D0
:10618C0014301020FDF781FF0546D0B18760142034
:10619C00FDF77BFF044678B18760014601A8FFF745
:1061AC0087FC039BA268A360049B0392E268E360F4
:1061BC009DF81430049223740A4BEB600A4B2C604C
:1061CC00AB6001A8FFF765FC002229460748FEF7E3
:1061DC0041FF3046FFF75DFC1021304600F09BFC80
:1061EC0007B0F0BD375E0D0005610D0071660D0046
:1061FC0030B585B004460D4668461146FFF7C9FD1B
:10620C007CB124B228460DB100F060FE029002A9C8
:10621C006846ADF80C40FFF71FFE02A8FFF77EFDA5
:10622C001DE000988DF808404FF00102D0E84F3F78
:10623C00A34203D1C0E8412F0029F7D102D08DF839
:10624C0008300CE010F10C014FF0010318BF037380
:10625C00BFF35F8F043000F8033CFFF771FF01A818
:10626C00FEF7A6F905B030BD704710B518210446ED
:10627C0000F051FC204610BDF0B5037D062B8DB00F
:10628C000E4600F104074FF0000402D000F108059F
:10629C0018E00CAD394605F8304D2F232A460A205C
:1062AC00FEF7F8FD284600F02CFE33680246DB684A
:1062BC002946304698470FE024B12E213046FFF78F
:1062CC0031FB044415F8011D0A223046FFF770FB20
:1062DC00BD420444F0D120460DB0F0BD10B5054BC5
:1062EC000446112240F8043B002100F0ADFD20468D
:1062FC0010BD00BF98730D000346074A10B543F854
:10630C00042B01F1100251F8044B43F8044B914259
:10631C00F9D10A781A7010BD98730D0010B59DF85C
:10632C00084044EA032343EA024242EA016104239F
:10633C004160037510BD37B50D788B784A78C978F4
:10634C0000912946FFF7EAFF03B030BD4174704756
:10635C00704708B50021007CFEF744FE30EA2000AF
:10636C0028BF4FF0FF3008BD08B50121007CFEF7B7
:10637C0039FE30EA200028BF4FF0FF3008BD08B5C9
:10638C00007CFEF727FE20EAE07008BD08B5007C13
:10639C00FEF718FE20EAE07008BD007CFEF732BE66
:1063AC0010B51421044600F0B6FB204610BD38B5DC
:1063BC000446007C0D46FEF70DFE002801DC607CD7
:1063CC0028B12946207CFEF715FE20EAE07038BD86
:1063DC0010B50446002363604FF47A73A360054B39
:1063EC00236001230846217463741146FEF7DAFD1D
:1063FC00204610BDAC730D000022007CFEF7DABD08
:10640C0010B514220446002100F01EFD204610BDDC
:10641C0030B50E4D87B001A8FFF7F2FF296811F0D7
:10642C00010410D12846FDF736FE60B101AA2146C1
:10643C000748FFF7CDFF2846FDF732FE054A06490F
:10644C00034800F063FB024807B030BDD0E30320E3
:10645C00D4E3032038E303205D630D0000221146D2
:10646C004068FEF75DBE002211464068FEF768BE2C
:10647C0000224068FEF75CBE002281F001014068FA
:10648C00FEF746BE00231A4619464068FEF738BE92
:10649C0000231A4619464068FEF72ABE0022114610
:1064AC004068FEF70DBE002202214068FEF710BEC8
:1064BC0000231A464068FEF7FBBD0000F0B51B4BED
:1064CC00036000250F462833182689B04360856089
:1064DC00C560324629460446103000F0B5FC2A4609
:1064EC0029467868FEF7FCFD08B9A0601BE0294638
:1064FC00324602A80095019500F0A6FC02A9684658
:10650C00ADF80860FEF746FD10B10123A3600AE068
:10651C00009B019AA360E2600BB90223A36002A95D
:10652C002046FFF767FB204609B0F0BD48730D000D
:10653C0038B5084C28252A460021204600F084FC5A
:10654C004FF0FF336360044B258004225A60034AEA
:10655C001A6038BDF0E30320E8E30320DC730D0080
:10656C0070474174704708B5007CFEF7D3FC20EAF5
:10657C00E07008BD08B5007CFEF7A4FC20EAE070D2
:10658C0008BD08B5007CFEF7ADFC30EA200028BF42
:10659C004FF0FF3008BD08B5007CFEF79BFC30EADD
:1065AC00200028BF4FF0FF3008BD007CFEF7A2BCD6
:1065BC0010B51421044600F0AEFA204610BD70B59B
:1065CC00457C04460E4625B9007CFEF7A3FC00284A
:1065DC0005DD3146207CBDE87040FEF76BBC2846DB
:1065EC0070BD000010B504460846114600226260DA
:1065FC004FF47A72A260054A226001222074627400
:10660C001A46FEF74FFC204610BD00BF10740D005B
:10661C00007CFEF777BC000038B50C4D296811F0F2
:10662C00010411D12846FDF736FD68B1084A094B23
:10663C0009482146FFF7D6FF2846FDF731FD074AEA
:10664C000749054800F062FA034838BDB0E403205E
:10665C00B4E403202CE4032018E4032038E30320E3
:10666C006D650D0010B5836804460BB900F055FA42
:10667C00C3689847A3681BB103222146204698475C
:10668C0020461021BDE8104000F045BA7047F8B51F
:10669C00064615460C468F18BC4206D0336814F8D3
:1066AC00011B9B6830469847F6E72846F8BD002248
:1066BC00007CFEF737BC0021007CFEF73BBC0021C0
:1066CC00007CFEF73FBC0021007CFEF743BC0021A0
:1066DC00007CFEF747BC10B51421044600F01BFAF1
:1066EC00204610BD10B504464FF47A730846A360DB
:1066FC000021044B207461602360FEF743FC2046AC
:10670C0010BD00BF40740D000021007CFEF732BCB0
:10671C00002211464068FEF703BD00221146406876
:10672C00FEF70EBD00224068FEF702BD002281F08C
:10673C0001014068FEF7ECBC00231A4601214068B9
:10674C00FEF7DEBC00231A4619464068FEF7D0BCA3
:10675C00002211464068FEF7C3BC00221146406877
:10676C00FEF7AEBC002202214068FEF7B1BC00234C
:10677C001A464068FEF79CBC38B5054688B10468DB
:10678C004CB1A3681BB10322214620469847102127
:10679C00204600F0C0F928461421BDE8384000F02E
:1067AC00BAB938BD10B103685B681847704710B5AB
:1067BC0003680446BBB15868FEF744FB78B92368FC
:1067CC005A7C12B95868FEF745FB23685868FEF7E7
:1067DC0049FB20680023236028B1FFF7CDFF206818
:1067EC0008B1FFF7C9FF204610BD000038B50C4BAF
:1067FC0003600446D0F8CC0108B1FDF74AFCD4F88C
:10680C00C45135B12846FFF7D2FF0421284600F0C9
:10681C0082F9A06808B1FFF7C5FF204638BD00BF5C
:10682C0068740D0038B50E4C0E4B23600025022306
:10683C0004F5E4706360A560C4F8C451C4F8C85191
:10684C00FEF720FB084BC4F8CC5184F8D0512360E0
:10685C002046064A0649BDE8384000F057B900BF4B
:10686C0038E503209C740D0068740D0038E3032098
:10687C00F9670D0000231A464068FEF719BC002288
:10688C0002214068FEF724BC002211464068FEF746
:10689C0017BC002211464068FEF722BC00231A46A2
:1068AC0019464068FEF724BC00231A461946406876
:1068BC00FEF726BC002281F001014068FEF728BCDF
:1068CC0000224068FEF734BC002211464068FEF7F7
:1068DC0037BC002211464068FEF722BC2DE9F0437C
:1068EC00002495B016460D460746FFF7F7FC2146E7
:1068FC0020220CA8009400F0A7FA40230C93214608
:10690C006B460CAA3046FEF735FA0446002844D1F3
:10691C00024601216868FEF7E3FB0221804622460D
:10692C006868FEF7DDFB009E81462146002E34D0C0
:10693C00002932D17368022B02D00A2B09D02AE02D
:10694C00B8F1000F27D0716938460431FFF7F3FC1A
:10695C0020E0B9F1000F1ED07469112201A800F0DB
:10696C0073FA06238DF8143001AD04F108031834C2
:10697C00186859682A4603C20833A3421546F7D152
:10698C0001A906A807ADFFF7B7FC0FCD3C1D0FC43E
:10699C002B6823700121F669C8E70098FEF7E2F92D
:1069AC00384615B0BDE8F083024B034A1A6000224A
:1069BC005A6070470CE703209C740D0008B5024B1D
:1069CC001B681B68019308BD5C02030008B5024BF1
:1069DC001B685B68019308BD5C02030008B5024BA1
:1069EC001B689B68019308BD5C02030010B504464C
:1069FC000F48FEF77FFC28B1A4F10B03022B01D842
:106A0C00002010BD00F062F8FFF77EFE08B1012CEB
:106A1C00F6D9FFF701FEFFF7FBFD18B1A4F109034E
:106A2C00012BEDD9232C8CBF0020012010BD00BF01
:106A3C0014E70320232838B504460D460AD8FF294D
:106A4C0008D0FFF7D3FF28B129462046BDE83840CF
:106A5C00FEF7A0B938BD38B504460D46FEF7A2F9CD
:106A6C00FF2810D0062804D84D2323FA00F0C307C2
:106A7C0009D42046FFF7BAFF28B129462046BDE8C5
:106A8C003840FEF797B938BD70B50C4C0C4E0D4D17
:106A9C0000212046FEF71AFC20460B4C32462946B4
:106AAC0000F034F801212046FEF710FC324629464E
:106ABC002046BDE8704000F029B800BF14E7032061
:106ACC0038E30320C9520D0024E7032038B50B4DE1
:106ADC00296811F001040FD12846FDF7DCFA58B1F2
:106AEC0021460748FFF7FEFD2846FDF7D9FA054A6F
:106AFC000549034800F00AF8014838BD38E703207F
:106B0C003CE7032038E3032099660D000B46014651
:106B1C00184600F051B9FDF7BABA08B5FEF780FB7C
:106B2C00184B1A68D1075CBF01221A60164B1A6801
:106B3C00D2075CBF01221A60144B1A68D0075CBFE5
:106B4C0001221A60124B1A68D1075CBF01221A602D
:106B5C00104B1A68D2075CBF01221A600E4B1A68E0
:106B6C00D0075CBF01221A600C4B1A68D1075CBFBE
:106B7C0001221A600A4B1A68D2075CBF01221A6004
:106B8C00704700BF6CE7032068E7032064E703202D
:106B9C0060E703205CE7032058E7032054E7032059
:106BAC0050E70320244B1A68D0075CBF01221A60FF
:106BBC00224B1A68D1075CBF01221A60204B1A685D
:106BCC00D2075CBF01221A601E4B1A68D0075CBF4B
:106BDC0001221A601C4B1A68D1075CBF01221A6093
:106BEC001A4B1A68D2075CBF01221A60184B1A683C
:106BFC00D0075CBF01221A60164B1A68D1075CBF24
:106C0C0001221A60144B1A68D2075CBF01221A6069
:106C1C00124B1A68D0075CBF01221A60104B1A681D
:106C2C00D1075CBF01221A600E4B1A68D2075CBFF9
:106C3C0001221A60704700BF9CE7032098E70320ED
:106C4C0094E7032090E703208CE7032088E70320D8
:106C5C0084E7032080E703207CE7032078E7032008
:106C6C0074E7032070E70320244B1A68D0075CBF3D
:106C7C0001221A60224B1A68D1075CBF01221A60EC
:106C8C00204B1A68D2075CBF01221A601E4B1A688F
:106C9C00D0075CBF01221A601C4B1A68D1075CBF7D
:106CAC0001221A601A4B1A68D2075CBF01221A60C3
:106CBC00184B1A68D0075CBF01221A60164B1A6871
:106CCC00D1075CBF01221A60144B1A68D2075CBF53
:106CDC0001221A60124B1A68D0075CBF01221A609D
:106CEC00104B1A68D1075CBF01221A600E4B1A6850
:106CFC00D2075CBF01221A60704700BFCCE70320AB
:106D0C00C8E70320C4E70320C0E70320BCE7032047
:106D1C00B8E70320B4E70320B0E70320ACE7032077
:106D2C00A8E70320A4E70320A0E70320184B1A6868
:106D3C00D1075CBF01221A60164B1A68D2075CBFE0
:106D4C0001221A60144B1A68D0075CBF01221A602A
:106D5C00124B1A68D1075CBF01221A60104B1A68DB
:106D6C00D2075CBF01221A600E4B1A68D0075CBFB9
:106D7C0001221A600C4B1A68D1075CBF01221A6001
:106D8C000A4B1A68D2075CBF01221A60704700BF19
:106D9C00ECE70320E8E70320E4E70320E0E7032027
:106DAC00DCE70320D8E70320D4E70320D0E7032057
:106DBC000A22002100F04EB910B5054C13462CB137
:106DCC000A4601460220AFF3008010BD204610BDDC
:106DDC0000000000002910B591FBF2F402FB141323
:106DEC0004DB002B07DA01349B1A04E0002BC4BF30
:106DFC0004F1FF349B180460436010BD10B5431EB2
:106E0C000A44914204D011F8014B03F8014FF8E702
:106E1C0010BD884210B501EB020301D8421E0BE0F5
:106E2C009842FBD28118D21AD34204D013F8014DE8
:106E3C0001F8014DF8E710BD994204D011F8014B4F
:106E4C0002F8014FF8E710BD02440346934202D00A
:106E5C0003F8011BFAE7704738B5124B1C68A36B9B
:106E6C000546D3B91820FEF7C3F943F20E33A063DD
:106E7C0003804AF6CD33438041F2342383804EF2B3
:106E8C006D63C3804DF6EC630381052343810B23B3
:106E9C00838101220023C0E90423A36B00221D611E
:106EAC005A6138BD34E3032010F8012B11F8013B73
:106EBC00012A28BF9A42F7D0D01A7047034611F81E
:106ECC00012B03F8012B002AF9D17047024B014624
:106EDC00186800F003B800BF34E3032070B5064611
:106EEC0008460C4600F00DF8451C29463046FEF7C6
:106EFC009FF9064618B12A462146FFF77FFF304618
:106F0C0070BD034613F8012B002AFBD1181A013867
:106F1C007047F0B5037863B90B78002B18BF0020CD
:106F2C00F0BD15F8012F62B114F8017F974230467D
:106F3C00F7D00346461C007810B14D1E5C1EF0E7DE
:106F4C00F0BD1846F0BD00002DE9F04780464048E2
:106F5C00D0F800900F463D4615F8014B09EB0400A4
:106F6C00407800F0080000F0FF0608B12F46F2E769
:106F7C002D2C03D1BD1C7C78012603E02B2C04BFE7
:106F8C007C78BD1C13B1102B0AD15BE0302C57D18F
:106F9C00287800F0DF0058284DD16C78102302358A
:106FAC00002E14BF4FF0004C6FF0004C0027BCFBC0
:106FBC00F3FA384603FB1ACC09EB040E9EF801E0F9
:106FCC001EF0040F01D0303C0BE01EF0030E1BD062
:106FDC00BEF1010F0CBF4FF0370E4FF0570ECEEB3A
:106FEC000404A34210DDB7F1FF3F0AD0504506D888
:106FFC0001D1644503DC03FB0040012701E04FF0A5
:10700C00FF3715F8014BD7E77B1C0CD1002E4FF046
:10701C00220314BF4FF000406FF00040C8F800305E
:10702C002AB9BDE8F08706B1404272B107B1691EBA
:10703C001160BDE8F0873024002BB1D10823AFE7F5
:10704C000A23ADE7302CA3D0AAE7BDE8F08700BF38
:10705C00D0E2032013460A46014602480068FFF7B7
:10706C0073BF00BF34E303201D400D0059400D00D9
:10707C0085400D0089400D0000000000736900532D
:10708C00657474696E672073656E64496E7465729D
:10709C0076616C20746F3A20006C690053657474CF
:1070AC00696E67206C6F67496E74657276616C20CF
:1070BC00746F3A2000736D0053657474696E6720A9
:1070CC00737461747573496E74657276616C207437
:1070DC006F3A2000746D0053657474696E67207488
:1070EC0072616E736D69744D6F646520746F3A20B4
:1070FC0000746F0053657474696E672074696D65F4
:10710C006F757420746F3A20006462005365747458
:10711C00696E6720646562756720746F3A2000742D
:10712C0072756500556E6B6E6F776E207061726153
:10713C006D657465722D200022002E002F686F6F14
:10714C006B2D726573706F6E73652F5374617475EC
:10715C0073005374617274696E67002C537461749C
:10716C0075732C006C693A002C73693A002C736DA2
:10717C003A002C746D3A002C746F3A002C766572C0
:10718C003A002C20525353493A20002C5265706C13
:10719C00792C00436F756E74657200525443002C49
:1071AC00313034332C00746F74616C5061796C6FB6
:1071BC0061643A200050494E00536C65657020663E
:1071CC00726F6D2050696E2057616B653A20004ECE
:1071DC006F726D616C20736C65657000312E312E91
:1071EC00320000000000000000000000AB520D0057
:1071FC00A1520D0097520D008D520D0081520D00C1
:10720C0075520D0069520D0061520D0057520D0060
:10721C004D520D00E9680D00000000000000000058
:10722C00C9520D00CB520D0062617564005365723A
:10723C0069616C0053657269616C310074797065B9
:10724C0000706172616D00636D6400696400686E4A
:10725C0064007374726D0066696C74006C766C00FB
:10726C0061646448616E646C65720072656D6F7602
:10727C006548616E646C657200656E756D48616E13
:10728C00646C657273004A534F4E53747265616D32
:10729C004C6F6748616E646C65720061707000259C
:1072AC003031307520005D20002564002C20002832
:1072BC00293A2000205B00636F6465203D20002587
:1072CC00690064657461696C73203D20000D0A00CF
:1072DC0066006C6E00666E00636F646500646574B6
:1072EC0061696C006E6F6E65007472616365006934
:1072FC006E666F007761726E006572726F720070ED
:10730C00616E696300616C6C005A00252B3033642C
:10731C003A253032750025592D256D2D25645425BF
:10732C00483A254D3A2553257A0061736374696D8B
:10733C00650000000000000000000000F95A0D007C
:10734C008B5B0D00FB5A0D00CD5B0D00015B0D003E
:10735C00995B0D002D5B0D00595B0D00FCFFFFFFD1
:10736C0000000000835B0D00000000000000000026
:10737C00ED5C0D00F35C0D00375D0D00015D0D0043
:10738C00EF5C0D00000000000000000085620D00A5
:10739C0075620D0077620D00000000000000000017
:1073AC005D630D00AD630D00BB630D00E5580D0072
:1073BC0099630D005F630D0075630D00A7630D00ED
:1073CC008B630D0059630D000000000000000000ED
:1073DC00BD640D00B3640D00A9640D00C7400D0021
:1073EC009D640D0091640D0085640D007D640D009D
:1073FC0073640D0069640D00E9680D000000000065
:10740C00000000006D650D00BD650D00CB650D0025
:10741C00E5580D0081650D00A3650D008F650D000D
:10742C00B7650D006F650D0073650D000000000061
:10743C000000000099660D00E3660D00BB660D00B0
:10744C009B660D00C3660D00CB660D00D3660D0068
:10745C00DB660D0000000000000000007B670D00E3
:10746C0071670D0067670D005D670D0051670D00BA
:10747C0045670D0039670D0031670D0027670D005A
:10748C001D670D00E9680D00000000000000000001
:10749C0081680D008B680D0095680D009F680D00CC
:1074AC00A9680D00B5680D00C1680D00CD680D0010
:1074BC00D5680D00DF680D00E9680D000020202064
:1074CC002020202020202828282828202020202088
:1074DC002020202020202020202020202088101058
:1074EC0010101010101010101010101010040404B4
:1074FC000404040404040410101010101010414172
:10750C00414141410101010101010101010101015F
:10751C000101010101010101101010101010424273
:10752C00424242420202020202020202020202022F
:10753C0002020202020202021010101020000000CF
:10754C00000000000000000000000000000000002F
:10755C00000000000000000000000000000000001F
:10756C00000000000000000000000000000000000F
:10757C0000000000000000000000000000000000FF
:10758C0000000000000000000000000000000000EF
:10759C0000000000000000000000000000000000DF
:1075AC0000000000000000000000000000000000CF
:1075BC0000000000000000000000000000000000BF
:1075CC0000000000000000000000000000000000AF
:1075DC00000000000000000000000000000000009F
:1075EC00000000000000000000000000000000008F
:1075FC00000000000000000000000000000000007F
:10760C00000000000000000000000000000000006E
:10761C00000000000000000000000000000000005E
:10762C00B54C0D00B5520D0091530D00D5580D0001
:10763C00095A0D00855A0D00DD5A0D003D650D00EF
:10764C0031680D00B5690D00956A0D002D6B0D00AC
:10765C00B16B0D00756C0D00396D0D000000000054
:04766C00000000001A
:1076700010270000070000000100040005000000C2
:10768000010000000100000030000000A005000023
:1076900036730D00C8740D0000000000CC750D009D
:1076A000EC750D000C760D000000000000000000DD
:1076B0000000000000000000A9710D0000000000A3
:1076C00000000000000000000000000000000000BA
:1076D00000000000000000000000000000000000AA
:1076E000000000000000000000000000000000009A
:0C76F0000000000000000000D4E20320B5
:1076FC00FFFFFFFF7A2901000000010203040506C9
:10770C000708090A0B0C0D0E0F1011121314151685
:0C771C001718191A1B1C1D1E1F20280026
:047728007856341249
:04000003D000401CCD
:00000001FF
