:02000002D0002C
:1040000000400D00986F0D00000006000D00050136
:0840100004017E050000000020
:04401800A4690D008A
:10401C0009480A49884208B505D0094A824202D0AB
:10402C00121A02F073FB0748074A0021121A02F019
:10403C0093FB014808BD00BFF0E10320F06E0D00BA
:10404C006CE203206CE20320F0E7032070B501F072
:10405C00D7FA074C074BE41AA40800251E46A542C4
:10406C0004D056F8253098470135F8E770BD00BFED
:10407C00E46E0D00A86E0D0000F0A0B908B500F0BC
:10408C00B9FABDE8084001F089BA00F017BE00F09B
:10409C001DBE00F01BBE0078B0FA80F040097047DE
:1040AC0001230370704700007FB50C463749054665
:1040BC0001F056F8B0B101F055FE35490546684699
:1040CC0000F07BFF2146684601F02CF80168284679
:1040DC0001F05FF9684600F029FF204601F00BF96A
:1040EC002C4B36E02C49284601F03AF8B0B101F0DF
:1040FC0039FE2A490546684600F05FFF21466846AE
:10410C0001F010F80168284601F043F9684600F008
:10411C000DFF204601F0EFF8214B1AE0214928460B
:10412C0001F01EF8B8B101F01DFE1F4905466846A6
:10413C0000F043FF2146684600F0F4FF0168284672
:10414C0001F027F9684600F0F1FE204601F0D3F8A3
:10415C00164B186017E001F005FE15490646684637
:10416C0000F02BFF2946684600F0DCFF114900F0F7
:10417C00E5FF214600F0D6FF0168304601F009F951
:10418C00684600F0D3FE012004B070BDB8690D0084
:10419C00BB690D00F8E10320D5690D00D8690D004D
:1041AC00F4E10320F1690D00F4690D00FCE103203A
:1041BC00106A0D00756A0D0070B59CB00546534928
:1041CC0014A800F0FAFE524918A800F0F6FE18AA3E
:1041DC0014A9284601F008F80146284600F01DFFF6
:1041EC0018A800F0A3FE14A800F0A0FE48496846E9
:1041FC0000F0E3FE464904A800F0DFFE444908A89D
:10420C0000F0DBFE00240126424908A800F0A8FFBC
:10421C00D8B92146284600F0BEFF014618A800F088
:10422C002FFF18A908A800F012FF18A800F07EFEB6
:10423C00394908A800F094FF002840D1374908A854
:10424C0000F08EFF002830D039E0694614A800F049
:10425C00F3FE30490CA800F0B0FE2D4910A800F078
:10426C00ACFE10AA0CA904A800F0BEFF014618A8C9
:10427C0000F0E2FE18A914A8FFF716FF18A800F02A
:10428C0055FE10A800F052FE0CA800F04FFE14A82A
:10429C0000F04CFE08A800F049FE04A800F046FE11
:1042AC00684600F043FE1CB070BD16B108A9684604
:1042BC0001E008A904A800F031FF0134A4E7164975
:1042CC0008A800F04DFF08B10026F6E7694614A8CF
:1042DC0000F0B2FE04A918A800F0AEFE18A914A8AC
:1042EC00FFF7E2FE064618A800F020FE14A800F026
:1042FC001DFE002ECED00649684600F0B0FE0449E3
:10430C0004A800F0ACFE0126D7E700BF246A0D001C
:10431C00876B0D00266A0D00756A0D007C6A0D0016
:10432C001FB50C4601F01EFD074901F032F821467D
:10433C00684600F042FE6846FFF73EFF684600F014
:10434C00F5FD04B010BD00BF286A0D0010B5144C6B
:10435C0000231A461946606800F030FC00231A4608
:10436C001946606800F00AFC00221146606800F0F3
:10437C001DFC68B10A4B00221146586800F016FC6F
:10438C0000F054FC00F062FC28B900F047FCF9E79F
:10439C0000F044FCE8E7BDE8104000F057BC00BF5B
:1043AC00E8E3032008B5FFF7D1FF00F04FFC20B184
:1043BC000020BDE8084000F069BC08BD30B540F6EF
:1043CC00B8308BB001F09CF8204D214C01F0CAFCA8
:1043DC004FF4165101F0BAFC0221042001F09EFFAB
:1043EC002888012101F09AFF2088012101F096FF15
:1043FC002888002101F0A3FF0021208801F09FFFF5
:10440C00FFF7D0FF01F06AF8124B186002A800F019
:10441C0025FC02A906A800F00FFE0F4906A800F023
:10442C008DFE0023019300931A460C49006800F09E
:10443C0025FC06A800F07AFD02A800F077FD01F03B
:10444C0091FC074900F0A5FF0BB030BD98E30320A9
:10445C00F0E103208CE303203A6A0D002D430D009C
:10446C00506A0D0010B500F0E9FB00F0EFFB0446BC
:10447C0050B900F0EBFB0648234622462146406823
:10448C00BDE8104000F0A2BB00F0C8FBEDE700BF98
:10449C00E8E3032010B50A4B1B68012B0FD0094C25
:1044AC0023684FF4C8700133236001F029F801F040
:1044BC0059FC21680A22BDE8104000F0C5BF10BDB0
:1044CC0094E3032084E3032038B5046805467CB1EB
:1044DC006368013B63605BB9236820469B6898471F
:1044EC00A368013BA3601BB923682046DB6898478F
:1044FC00284638BD10B59AB0FFF728FF00F0EEFF44
:10450C000A22014606A800F0DFFD06A90AA800F061
:10451C0093FD2E490AA800F011FE2D4900F00EFE65
:10452C002C4B0A22196804460EA800F0BAFD0EA9FD
:10453C00204600F0F7FD284900F000FE274B0A2228
:10454C001968044612A800F0ACFD12A9204600F030
:10455C00E9FD234900F0F2FD224B0A2219680446BA
:10456C0016A800F09EFD16A9204600F0DBFD0146C2
:10457C0002A800F061FD16A800F0D8FC12A800F00B
:10458C00D5FC0EA800F0D2FC0AA800F0CFFC06A8BF
:10459C0000F0CCFC144B029A1B7814498DF80030B7
:1045AC0016A83C2301F088F917A8FFF78DFF00F03F
:1045BC0095FF0F4B186042F2107000F0A1FFFFF74F
:1045CC0051FF02A800F0B2FC1AB010BD7C6A0D00BD
:1045DC00596A0D00F4E10320646A0D00F8E1032030
:1045EC00696A0D00FCE1032088E30320496A0D0091
:1045FC00F0E203202DE9F0478AB000F06FFF6B4C1E
:10460C002060042001F0B4FE694B6A4A18606A4BC2
:10461C0012681B683C2505FB032500F05FFF8542F3
:10462C0001DAFFF767FFDFF8C8912368DFF8C48170
:10463C00D9F80020614D9A1AD8F800303C277B43FA
:10464C009A424646C0F292802B68002B00F08E8076
:10465C00DFF8A4A15A495B485B4C02F0ADF80A2282
:10466C00DAF8001006A800F01CFD0699554802F077
:10467C00A3F806A800F05AFC01F074FB534900F0B3
:10468C0075FE01F06FFB4F4900F083FE01F06AFBF1
:10469C000A22D9F8001000F0E1FE444A236812689F
:1046AC00C9F80020DFF85491D9F800200133002616
:1046BC0093422360CAF8006074DB00F00FFFD9F856
:1046CC0000102368794303FB11010A2206A800F0AD
:1046DC00FBFC06993E4802F088F806A800F026FC80
:1046EC003C493B4802F068F80A22D8F8001006A8AA
:1046FC0000F0D7FC0699364802F05EF806A800F0E8
:10470C0015FC3049324802F057F8FFF71FFE324BC8
:10471C002F4A1B7831498DF8003006A83B4601F032
:10472C00CBF807A8FFF7D0FE01F01CFB2C4907467D
:10473C0006A800F042FC264902A800F03EFC02A9A3
:10474C0006A800F0EFFC0168384600F022FE02A833
:10475C0000F0ECFB06A800F0E9FBFFF783FE214913
:10476C00184802F042F826602E601BE02C68BCB999
:10477C00FFF778FE01F0F6FA1B4900F00AFE01F093
:10478C00F1FA184900F005FE3268184B3C214A43F7
:10479C001B68214606A800F017FB084B01221A6083
:1047AC00FFF778FE0AB0BDE8F08700BF9CE303205A
:1047BC0094E30320F0E20320FCE10320FCE203205D
:1047CC007C6A0D0070E2032080E303206E6A0D000A
:1047DC0000E30320776A0D0088E303207E6A0D0056
:1047EC00866A0D00876B0D00956A0D0090E303201F
:1047FC008CE30320F4E1032084E30320F8E103209D
:10480C0038B5114B00241C60104B01251D7000F0B5
:10481C0031F801F047FD2346224642F67A1101F0A9
:10482C0049FD01F03FFD23462246294601F04AFD91
:10483C00074B4FF6FF721C705C809A800320BDE81A
:10484C00384000F057B900BF90E3032088E3032001
:10485C00F4E2032008B5024B1B689B68019308BD6A
:10486C006802030008B5024B1B68DB68019308BDA6
:10487C006802030008B5024B1B681B68019308BD56
:10488C002C02030008B5024B1B689B68019308BD02
:10489C002C02030008B5024B1B68DB68019308BDB2
:1048AC002C02030008B5024B1B681B69019308BD61
:1048BC002C02030008B5024B1B685B69019308BD11
:1048CC002C02030008B5024B1B68DB69019308BD81
:1048DC003002030008B5024B1B681B6A019308BD2C
:1048EC003002030008B5024B1B685B68019308BDDE
:1048FC001802030008B5024B1B685B69019308BDE5
:10490C001802030008B5024B1B68DB69019308BD54
:10491C001802030008B5024B1B689B6D019308BD80
:10492C001802030008B5024B1B689B68019308BD75
:10493C004802030008B5024B1B681B69019308BDB4
:10494C004802030008B5024B1B685B69019308BD64
:10495C004802030008B5024B1B681B6B019308BD92
:10496C004802030008B5024B1B685B6C019308BD41
:10497C004802030008B5024B1B685B69019308BD34
:10498C006402030008B5024B1B681B68019308BD49
:10499C003C02030008B5024B1B68DB68019308BDA1
:1049AC003C02030008B5024B1B681B69019308BD50
:1049BC003C02030008B5024B1B685B69019308BD00
:1049CC003C02030008B5024B1B689B69019308BDB0
:1049DC003C02030008B5024B1B68DB69019308BD60
:1049EC003C02030008B5024B1B681B6A019308BD0F
:1049FC003C02030008B5024B1B689B6A019308BD7F
:104A0C003C02030008B5024B1B681B6A019308BDEE
:104A1C002802030008B5024B1B685B6A019308BDB2
:104A2C002802030008B5024B1B689B6A019308BD62
:104A3C002802030008B5024B1B68DB6A019308BD12
:104A4C002802030008B5024B1B681B6B019308BDC1
:104A5C002802030008B5024B1B685B6B019308BD71
:104A6C002802030008B5024B1B681B6C019308BDA0
:104A7C002802030008B5024B1B681B68019308BD94
:104A8C004C02030008B5024B1B685B68019308BD20
:104A9C004C02030008B5024B1B681B69019308BD4F
:104AAC004C02030008B5024B1B685B69019308BDFF
:104ABC004C02030008B5024B1B689B69019308BDAF
:104ACC004C02030008B5024B1B68DB69019308BD5F
:104ADC004C02030008B5024B1B681B6A019308BD0E
:104AEC004C02030008B5024B1B681B68019308BD00
:104AFC002002030008B5024B1B685B68019308BDDC
:104B0C002002030008B5024B1B685B69019308BDCA
:104B1C002002030008B5024B1B689B69019308BD7A
:104B2C002002030008B5024B1B68DB6C019308BD27
:104B3C002002030008B5024B1B685B6D019308BD96
:104B4C002002030008B5024B1B689B6D019308BD46
:104B5C002002030008B5034B1B68D3F8883001937F
:104B6C0008BD00002002030008B5034B1B68D3F8F6
:104B7C009430019308BD00002002030008B5024BDD
:104B8C001B685B68019308BD4002030008B5024B2B
:104B9C001B689B68019308BD4002030008B5024BDB
:104BAC001B68DB68019308BD4002030008B5024B8B
:104BBC001B681B69019308BD4002030008B5024B3A
:104BCC001B685B69019308BD4002030008B5024BEA
:104BDC001B689B69019308BD4002030008B5024B9A
:104BEC001B68DB69019308BD4002030008B5024B4A
:104BFC001B681B6A019308BD4002030008B5024BF9
:104C0C001B681B6B019308BD4002030008B5024BE7
:104C1C001B685B6B019308BD4002030008B5024B97
:104C2C001B689B68019308BD4402030008B5024B46
:104C3C001B68DB68019308BD4402030008B5024BF6
:104C4C001B681B69019308BD4402030008B5024BA5
:104C5C001B685B69019308BD4402030008B5024B55
:104C6C001B68DB69019308BD4402030008B5024BC5
:104C7C001B681B6A019308BD4402030008B5024B74
:104C8C001B685B6A019308BD4402030008B5024B24
:104C9C001B68DB6A019308BD4402030008B5024B94
:104CAC001B681B6B019308BD4402030008B5024B43
:104CBC001B68DB6B019308BD4402030008B5024B73
:104CCC001B681B68019308BD1C02030008B5024B4E
:104CDC001B685B68019308BD1C02030008B5024BFE
:104CEC001B689B68019308BD1C02030008B5024BAE
:104CFC001B68DB6A019308BD1C02030008B5024B5C
:104D0C001B681B6B019308BD1C020300002211469B
:104D1C004068FFF76BBF002211464068FFF776BF73
:104D2C0000224068FFF76ABF002281F00101406851
:104D3C00FFF754BF00231A4619464068FFF746BFD9
:104D4C0000231A4619464068FFF738BF0022114667
:104D5C004068FFF72BBF002211464068FFF716BFD3
:104D6C00002202214068FFF719BF00231A46406851
:104D7C00FFF704BF024B03225A60024A1A607047C5
:104D8C00A0E30320A46A0D00704710B5102104465F
:104D9C0001F049FB204610BD70B5084B036004467A
:104DAC0000250E4640F80C5FFFF7D4FD3046267107
:104DBC00FFF788FDA560204670BD00BFD86A0D00C6
:104DCC000079FFF787BD000010B504460846114670
:104DDC001A460023FFF79EFE064B00221A704FF670
:104DEC00FF7258809A801A689B882260A3802046A4
:104DFC0010BD00BFA8E30320044B00204FF6FF7248
:104E0C00187058809A80FFF775BE00BFA8E3032086
:104E1C0010B5044601F00DFD0138231820469842C8
:104E2C0006D20278197800F8011B03F80129F6E77D
:104E3C0010BD2DE9F041931E232B15468CB034BFC9
:104E4C0015460A2500230A2D0C468DF82C3007D167
:104E5C00984205DA2D2301F101080B70404201E064
:104E6C00B0B1A0460DF12B0601272A46014601A838
:104E7C0001F038FC029B0198092BCCBF3722302261
:104E8C0052FA83F306F8013901370028EDD106E018
:104E9C0030238DF82B30A0460DF12A0602273A4616
:104EAC00711C404601F032FC20460CB0BDE8F0818C
:104EBC0070B50C46911E222920D82546294610B9DA
:104ECC00234430220EE0B0FBF2F602FB1600C1B216
:104EDC0005F8011B092894BF3031573105F8011C26
:104EEC003046EBE7994202D201F8012BFAE7002396
:104EFC0020460B70FFF78CFF204670BD002070BD64
:104F0C0038B5031E0C4615460BDAB3F1004F4FF0C3
:104F1C002D0214BF5842184601230A702A46194420
:104F2C0000E00123FFF7C4FF204638BD10B504464E
:104F3C000068FFF7CBFE204610BD10B50446006894
:104F4C0008B1FFF7C3FE00232360A360636010BDAC
:104F5C0038B504460D4600680131FFF7BFFE10B1AD
:104F6C0084E82100012038BD10B50368044613B154
:104F7C0043688B4207D22046FFF7EAFF20B1A368B3
:104F8C000BB922681370012010BD70B50E46114686
:104F9C0004461546FFF7E8FF18B92046FFF7CDFF8A
:104FAC0009E02A463146A560206801F0AFFB226873
:104FBC00A3680021D154204670BD38B500230446A7
:104FCC0003604360836003730D4639B1084601F0FA
:104FDC0030FC294602462046FFF7D7FF204638BD55
:104FEC0038B5054600680C4660B16A688B689A4211
:104FFC0006D3096801F0F9FBA368AB6000230AE053
:10500C00FFF764FE23682B6063686B60A368AB607A
:10501C00002323606360A36038BD884210B50B4643
:10502C00044607D0096819B19A68FFF7AEFF01E092
:10503C00FFF783FF204610BD10B500230446036024
:10504C00436083600373FFF7E8FF204610BD88427E
:10505C0010B5044601D0FFF7C3FF204610BD38B58C
:10506C0005460C4641B1084601F0E3FB21460246D9
:10507C002846FFF78AFF01E0FFF75FFF284638BD9F
:10508C0013B500238DF80410036043608360037331
:10509C0001A904468DF80530FFF7E1FF204602B068
:1050AC0010BD10B5044600238AB023606360A36072
:1050BC002373084601A9FFF723FF01A92046FFF738
:1050CC00CEFF20460AB010BD10B5044600238AB0AE
:1050DC0023606360A3602373084601A9FFF7A9FE50
:1050EC0001A92046FFF7BBFF20460AB010BD70B5E2
:1050FC0004460E4609B9002070BD6AB18368D51804
:10510C002946FFF731FF0028F5D02068A368314607
:10511C00184401F06AFBA560012070BD8A6809681B
:10512C00FFF7E5BF10B58A6809680446FFF7DFFF93
:10513C0010B92046FFF701FF204610BD38B50446D4
:10514C000D4641B1084601F074FB29460246204643
:10515C00FFF7CDFF10B92046FFF7EFFE204638BD14
:10516C0008B582680B4612B919B9012008BD11B9EE
:10517C000368187802E0006801F02DFBB0FA80F0AB
:10518C00400908BD83688B4203D9006810B1405CAC
:10519C00704700207047FFF7F5BF2DE9F041154629
:1051AC008A680F46CAB18368BBB19A4215D80668A3
:1051BC00AB4298BF03F1FF3530464FF0FF3406EB9E
:1051CC00050840450DD8396801F03BFB48B1831BFD
:1051DC009D4228BF1C460130F3E74FF0FF30BDE87D
:1051EC00F0812046BDE8F0812DE9F74FD0F808A0FA
:1051FC00054688461646BAF1000F78D0D1F808B0AB
:10520C00BBF1000F73D097680468CBEB0707002F36
:10521C000ED12046D8F8001001F013FB04460028EC
:10522C0065D0B268316801F071FAB0680444F0E7F7
:10523C0022DAA146D8F80010204601F002FB834682
:10524C00A8B1C4EB000A214652464846D14401F0AD
:10525C005DFA4846B268316801F058FAB368D8F87C
:10526C0008409944AB683B445C44AB60E2E72146A0
:10527C00484601F0BAFA3AE00B68D1461946204686
:10528C00019301F0DEFA20B100EB0B04B944019B51
:10529C00F4E7D1452BD06B68994504D9494628468B
:1052AC00FFF756FE18B3AA684FF00009013A002A1E
:1052BC001DDB41462846FFF770FF041E17DBD8F8AC
:1052CC0008302968AA6823441944D21AC81901F075
:1052DC0028FAAB682A683B44AB6002F80390286854
:1052EC00B2683168204401F011FA621EDFE72846EB
:1052FC0003B0BDE8F08F006808B101F0E1B9704768
:10530C000B68036013B15A6801325A607047000091
:10531C00024800230360FFF725BB00BFB0E3032066
:10532C00F8B506460D468F180024BD420CD03368E4
:10533C0015F8011B9B6830469847002801DB044494
:10534C00F3E7002C08BF04462046F8BD70B50546AF
:10535C000C46084649B101F06CFA2B68024621460E
:10536C002846DB68BDE87040184770BD08B5FFF7EC
:10537C00EDFF08BD03689B68184738B50D2105463D
:10538C00FFF7F8FF0A2104462846FFF7F3FF2044F5
:10539C0038BD38B50546FFF7D9FF04462846FFF758
:1053AC00ECFF204438BD30B58BB00B4600218DF896
:1053BC002410012A98BF0A220DF12304B3FBF2F545
:1053CC0005FB123303F0FF03092B94BF3033373343
:1053DC00DBB2214604F801392B46002DEED1FFF744
:1053EC00B5FF0BB030BD10B42AB903685DF8044B9F
:1053FC009B68C9B21847D2B25DF8044BFFF7D3BF14
:10540C00FFF7F1BF2DE9F04107460E4615462AB9C4
:10541C000368C9B29B68BDE8F04118470A2A02D15B
:10542C00002901DA04E0D2B2BDE8F041FFF7BBBFBE
:10543C002D21FFF79FFF2A46044671423846FFF79D
:10544C00B2FF2044BDE8F08138B50546FFF7DAFF1E
:10545C0004462846FFF791FF204438BD38B5054671
:10546C00FFF7D0FF04462846FFF787FF204438BDDE
:10547C00014B024A1A607047B4E30320536B0D00D2
:10548C0008B50020FFF70AFC28B1FFF7DFFB80F01E
:10549C000100C0B208BD012008BD10B50020FFF707
:1054AC0039FA044668B9FFF71DFB01280BD12046D9
:1054BC00FFF748FB38B9FFF7E3FF30B9FFF7AEFB56
:1054CC00F9E7012010BD002010BDFFF7D9FF002027
:1054DC00FFF720FA003018BF012010BD08B5FFF708
:1054EC00DCFFBDE80840FFF70DBA0000024B1A685C
:1054FC00024B1A60704700BF00E20320B8E30320A0
:10550C000021FFF7FFBA10B58368044613B10322DC
:10551C0001469847204610BD10B50446FFF7F3FF2F
:10552C00204610BD13B50B46044603C88DE8030096
:10553C0093E8030084E803009DE8030083E803007C
:10554C0002B010BD0348044A04490023836000F0F4
:10555C0065BF00BFBCE303206CE2032025550D00A2
:10556C0008B50C4B33B100F0FDFB03681B69984781
:10557C00002809DC084B63B100F0C2FC03681B690E
:10558C009847002803DC08BDAFF30080F2E7AFF3C7
:10559C00008008BD000000000000000008B5FFF707
:1055AC00DFFFFFF7A7F9014B186008BD34E70320B4
:1055BC0007B5002300931A466FF07701FFF7D4FA72
:1055CC0003B05DF804FB000007B543880A2B08D034
:1055DC00502B09D1094B1B683BB103B05DF804EBB0
:1055EC001847FFF7E5FF06E0002300931A466FF01B
:1055FC007701FFF7B9FA03B05DF804FBCCE30320A5
:10560C0010B5FFF76FF9044601F0AEF8074B13B174
:10561C002046AFF3008000210448FFF747FB002130
:10562C000348BDE81040FFF795BA00BF000000002A
:10563C00D5550D0070470020704710B51021044659
:10564C0000F0F1FE204610BD08B508B1FFF7F5FFDC
:10565C0008BD0022026010B54FF69C728280B1F931
:10566C00044084808A8002680C6804600A6010BD63
:10567C0010B504460068FFF729FB204610BD38B56D
:10568C00C468F4B12378022B03D104F10C00FFF7AA
:10569C00EFFF656835B12846FFF735FF1021284626
:1056AC0000F0C1FEA56835B12846FFF72CFF10218C
:1056BC00284600F0B8FE20461421BDE8384000F022
:1056CC00B2BE38BD13B5044691E8050000234B600B
:1056DC000B602060626001A801930093FEF7F4FE5A
:1056EC00204602B010BDF7B50C4602AD54F8043B91
:1056FC0045F8083D06460F4601A82146FFF700FE77
:10570C0029463046FFF7DEFF01A8FEF7DDFE2046F6
:10571C00FEF7DAFE3846082100F085FE304603B06D
:10572C00F0BD000038B500230446036010200D4680
:10573C00FEF7ABFC28B1012343608360024B03608E
:10574C00C5602060204638BDF46B0D00826810B532
:10575C000AB900F06AFEC368BDE81040184708B5E6
:10576C00006800F11001FFF7F1FF08BD826810B569
:10577C000AB900F05AFEC368BDE81040184708B5D6
:10578C00006800F11001FFF7F1FF08BD38B50023E8
:10579C0083608B6804460D462BB102229847EB6858
:1057AC00E360AB68A360204638BD0000F0B589B05B
:1057BC0004686846FFF74DFF00238DF808304FF062
:1057CC000202D4E84F3F002B03D1C4E8412F00293B
:1057DC00F7D102D08DF8083063E014F10C0503D03A
:1057EC0069462846FFF735FFBFF35F8F01236370CF
:1057FC00002004F10803BFF35F8F53E8006F43E808
:10580C000002002AF9D1BFF35F8F002E49D0FFF7B9
:10581C0089F920B129463046FFF798FF3AE0314626
:10582C0002A8FFF7B3FFE068B4F9105008B100F01C
:10583C00E5FF06901020ADF81C50FEF726FC05463F
:10584C00E8B1002787601820FEF71FFC044688B1DA
:10585C000146876002A8FFF765FE049BA268A3605F
:10586C00059B049206A9E268E36004F1100005921E
:10587C00FFF7EFFE0D4BEB600D4B2C60AB6006A8F9
:10588C00FFF7F6FE02A8FFF73EFE00222946094864
:10589C00FFF750F93046FFF736FE1021304600F086
:1058AC00C2FD6846FFF7E4FE09B0F0BD6B570D0072
:1058BC00E1590D00595F0D002DE9F04F8BB00646F4
:1058CC000F46904699469DF850A0FFF7BFF907ADDB
:1058DC00834630BB4FF62E73059005A92846ADF8CC
:1058EC001830FFF7B6FE1420FEF7CFFB044658B174
:1058FC000223037001234370C0F804B0C0F808B051
:10590C0029460C30FFF7A5FE3046214640F8044BE3
:10591C00FFF708FF2846FFF7ABFE05A8FFF7A8FE28
:10592C0052E000240C2314206C60AC600793FEF74B
:10593C00ACFB014618B1047044704460846004A848
:10594C000391FFF7EFFE224B08930820FEF79DFB17
:10595C00044628B1039B40F8043B04A9FFF7D0FC94
:10596C0000955FFA8AF34A46414638460994FFF798
:10597C007DF920B9039B5B7803F0FF0283B1039B95
:10598C00059304A906A8FFF7BBFC05A93046FFF751
:10599C0099FE06A8FEF798FD04A8FEF795FD13E006
:1059AC004FF69C7305A903A80592ADF81830FFF7C4
:1059BC00FDFE05A8FFF75CFE05A80999FFF793FE0D
:1059CC0006A8FEF781FDDAE730460BB0BDE8F08F94
:1059DC00515B0D00022AF8B5044606D0032A17D0F5
:1059EC00012A22D10B6803601FE018200E68FEF715
:1059FC004CFB054650B13146FFF7C8FE3069B6F98D
:105A0C00147008B100F0FAFE2861AF8225600CE03A
:105A1C00046854B104F11000FFF72AFE2046FFF78A
:105A2C0072FD1821204600F0FEFC0020F8BD38B5B0
:105A3C00002383608B6804460D462BB102229847E5
:105A4C00EB68E360AB68A360204638BD022A70B5F2
:105A5C00044606D0032A11D0012A18D10B68036022
:105A6C0015E014200E68FEF710FB054620B13146F8
:105A7C00FFF7DDFF337C2B74256008E0046834B13C
:105A8C002046FFF740FD1421204600F0CCFC0020FE
:105A9C0070BD0000F0B5002387B00C46BFF35F8FDC
:105AAC0050E8006F40E80032002AF9D1BFF35F8F55
:105ABC00002E3FD01846FFF735F8074620B1214697
:105ACC003046FFF753FE2EE0314601A8FFF7AFFF3B
:105ADC0023788DF814301020FEF7D7FA0546D0B194
:105AEC0087601420FEF7D1FA044678B1876001462E
:105AFC0001A8FFF717FD039BA268A360049B039208
:105B0C00E268E3609DF81430049223740A4BEB6056
:105B1C000A4B2C60AB6001A8FFF7F5FC002229466C
:105B2C000748FFF707F83046FFF7EDFC1021304629
:105B3C0000F079FC07B0F0BD8B570D00595A0D00E1
:105B4C00595F0D0030B585B004460D4668461146C8
:105B5C00FFF7C9FD7CB124B228460DB100F04EFE12
:105B6C00029002A96846ADF80C40FFF71FFE02A890
:105B7C00FFF77EFD1DE000988DF808404FF0010204
:105B8C00D0E84F3FA34203D1C0E8412F0029F7D101
:105B9C0002D08DF808300CE010F10C014FF001032D
:105BAC0018BF0373BFF35F8F043000F8033CFFF79B
:105BBC0071FF01A8FEF788FC05B030BD704710B529
:105BCC001821044600F02FFC204610BDF0B5037DD3
:105BDC00062B8DB00E4600F104074FF0000402D0E6
:105BEC0000F1080518E00CAD394605F8304D2F23AF
:105BFC002A460A20FEF7BEFE284600F01AFE33683D
:105C0C000246DB682946304698470FE024B12E2126
:105C1C003046FFF7AFFB044415F8011D0A2230464D
:105C2C00FFF7EEFBBD420444F0D120460DB0F0BDB1
:105C3C0010B5054B0446112240F8043B002100F03E
:105C4C008BFD204610BD00BF106C0D000346074AAB
:105C5C0010B543F8042B01F1100251F8044B43F832
:105C6C00044B9142F9D10A781A7010BD106C0D00DA
:105C7C0010B59DF8084044EA032343EA024242EA85
:105C8C00016104234160037510BD37B50D788B7825
:105C9C004A78C97800912946FFF7EAFF03B030BD76
:105CAC0041747047704708B50021007CFEF702FF75
:105CBC0030EA200028BF4FF0FF3008BD08B50121A5
:105CCC00007CFEF7F7FE30EA200028BF4FF0FF30D3
:105CDC0008BD08B5007CFEF7E5FE20EAE07008BDC3
:105CEC0008B5007CFEF7D6FE20EAE07008BD007C0B
:105CFC00FEF7F0BE10B51421044600F094FB2046CC
:105D0C0010BD38B50446007C0D46FEF7CBFE0028CE
:105D1C0001DC607C28B12946207CFEF7D3FE20EA0A
:105D2C00E07038BD10B50446002363604FF47A73FD
:105D3C00A360054B2360012308462174637411464C
:105D4C00FEF798FE204610BD246C0D000022007C4E
:105D5C00FEF798BE10B514220446002100F0FCFC9E
:105D6C00204610BD30B50E4D87B001A8FFF7F2FFED
:105D7C00296811F0010410D12846FEF78CF960B1A6
:105D8C0001AA21460748FFF7CDFF2846FEF788F900
:105D9C00054A0649034800F041FB024807B030BDF4
:105DAC00D0E30320D4E303206CE20320B15C0D00AC
:105DBC00002211464068FEF7F9BE002211464068E9
:105DCC00FEF714BF002211464068FEF71FBF0022E9
:105DDC004068FEF713BF002281F001014068FEF716
:105DEC00FDBE00231A4619464068FEF7EFBE00239D
:105DFC001A4619464068FEF7E1BE0022114640687B
:105E0C00FEF7C4BE002202214068FEF7C7BE002385
:105E1C001A464068FEF7B2BE38B5084C28252A460B
:105E2C000021204600F098FC4FF0FF336360044BD8
:105E3C00258004225A60034A1A6038BDF0E303201F
:105E4C00E8E30320546C0D0070474174704708B5AB
:105E5C00007CFEF7CFFD20EAE07008BD08B5007CA1
:105E6C00FEF7A0FD20EAE07008BD08B5007CFEF747
:105E7C00A9FD30EA200028BF4FF0FF3008BD08B55F
:105E8C00007CFEF797FD30EA200028BF4FF0FF3072
:105E9C0008BD007CFEF79EBD10B51421044600F031
:105EAC00C2FA204610BD70B5457C04460E4625B995
:105EBC00007CFEF79FFD002805DD3146207CBDE807
:105ECC007040FEF767BD284670BD000010B5044653
:105EDC0008461146002262604FF47A72A260054AAD
:105EEC0022600122207462741A46FEF74BFD204694
:105EFC0010BD00BF886C0D00007CFEF773BD000068
:105F0C0038B50C4D296811F0010411D12846FEF763
:105F1C00C2F868B1084A094B09482146FFF7D6FF79
:105F2C002846FEF7BDF8074A0749054800F076FAFF
:105F3C00034838BDB0E40320B4E403202CE4032070
:105F4C0018E403206CE20320555E0D0010B5836845
:105F5C0004460BB900F069FAC3689847A3681BB1F3
:105F6C00032221462046984720461021BDE81040C8
:105F7C0000F059BA7047F8B5064615460C468F180E
:105F8C00BC4206D0336814F8011B9B683046984716
:105F9C00F6E72846F8BD0022007CFEF733BD002151
:105FAC00007CFEF737BD0021007CFEF73BBD0021D5
:105FBC00007CFEF73FBD0021007CFEF743BD10B511
:105FCC001421044600F02FFA204610BD10B50446EB
:105FDC004FF47A730846A3600021044B207461606F
:105FEC002360FEF73FFD204610BD00BFB86C0D00CE
:105FFC000021007CFEF72EBD002211464068FEF702
:10600C00F5BD002211464068FEF700BE0022406834
:10601C00FEF7F4BD002281F001014068FEF7DEBD01
:10602C0000231A4601214068FEF7D0BD00231A4612
:10603C0019464068FEF7C2BD002211464068FEF7C3
:10604C00B5BD002211464068FEF7A0BD002202211A
:10605C004068FEF7A3BD00231A464068FEF78EBDCC
:10606C0038B5054688B104684CB1A3681BB103224E
:10607C002146204698471021204600F0D4F92846A6
:10608C001421BDE8384000F0CEB938BD10B103681A
:10609C005B681847704710B503680446BBB1586875
:1060AC00FEF740FC78B923685A7C12B95868FEF7A1
:1060BC0041FC23685868FEF745FC206800232360E8
:1060CC0028B1FFF7CDFF206808B1FFF7C9FF2046C4
:1060DC0010BD000038B50C4B03600446D0F8CC0161
:1060EC0008B1FDF7D6FFD4F8C45135B12846FFF7F7
:1060FC00D2FF0421284600F096F9A06808B1FFF7FA
:10610C00C5FF204638BD00BFE06C0D0038B50E4C05
:10611C000E4B23600025022304F5E4706360A56038
:10612C00C4F8C451C4F8C851FEF71CFC084BC4F8A1
:10613C00CC5184F8D05123602046064A0649BDE86C
:10614C00384000F06BB900BF38E50320146D0D002A
:10615C00E06C0D006CE20320E1600D0000231A4698
:10616C004068FEF70BBD002202214068FEF716BD09
:10617C00002211464068FEF709BD00221146406816
:10618C00FEF714BD00231A4619464068FEF716BDEB
:10619C0000231A4619464068FEF718BD002281F00C
:1061AC0001014068FEF71ABD00224068FEF726BDCB
:1061BC00002211464068FEF729BD002211464068B6
:1061CC00FEF714BD2DE9F043002495B016460D469C
:1061DC000746FFF72DFD214620220CA8009400F065
:1061EC00BBFA40230C9321466B460CAA3046FEF7B3
:1061FC0039FB0446002844D1024601216868FEF7A9
:10620C00D5FC0221804622466868FEF7CFFC009E32
:10621C0081462146002E34D0002932D17368022BDE
:10622C0002D00A2B09D02AE0B8F1000F27D07169EF
:10623C0038460431FFF729FD20E0B9F1000F1ED0DC
:10624C007469112201A800F087FA06238DF8143026
:10625C0001AD04F108031834186859682A4603C2C2
:10626C000833A3421546F7D101A906A807ADFFF7DD
:10627C00EDFC0FCD3C1D0FC42B6823700121F6697A
:10628C00C8E70098FEF7E6FA384615B0BDE8F0838B
:10629C00024B034A1A6000225A6070470CE7032035
:1062AC00146D0D0008B5024B1B681B68019308BDEB
:1062BC005C02030008B5024B1B685B68019308BDC8
:1062CC005C02030008B5024B1B689B68019308BD78
:1062DC005C02030010B504460F48FEF771FD28B1AF
:1062EC00A4F10B03022B01D8002010BD00F076F8AE
:1062FC00FFF77EFE08B1012CF6D9FFF701FEFFF780
:10630C00FBFD18B1A4F10903012BEDD9232C8CBF93
:10631C000020012010BD00BF14E70320232838B54E
:10632C0004460D460AD8FF2908D0FFF7D3FF28B141
:10633C0029462046BDE83840FEF7A4BA38BD38B52A
:10634C0004460D46FEF7A6FAFF2810D0062804D8FE
:10635C004D2323FA00F0C30709D42046FFF7BAFFF8
:10636C0028B129462046BDE83840FEF79BBA38BD17
:10637C0010B50446FEF78EFA0438C0B2012808D9CD
:10638C002046FFF7A7FF20B12046BDE81040FEF7DE
:10639C0091BA002010BD000070B50C4C0C4E0D4D88
:1063AC0000212046FEF7F8FC20460B4C32462946CD
:1063BC0000F034F801212046FEF7EEFC3246294667
:1063CC002046BDE8704000F029B800BF14E7032058
:1063DC006CE20320954D0D0024E7032038B50B4DDE
:1063EC00296811F001040FD12846FDF754FE58B16D
:1063FC0021460748FFF7EAFD2846FDF751FE054AFE
:10640C000549034800F00AF8014838BD38E7032075
:10641C003CE703206CE20320815F0D000B46014634
:10642C00184600F051B9FDF732BE08B5FEF75EFC18
:10643C00184B1A68D1075CBF01221A60164B1A68F8
:10644C00D2075CBF01221A60144B1A68D0075CBFDC
:10645C0001221A60124B1A68D1075CBF01221A6024
:10646C00104B1A68D2075CBF01221A600E4B1A68D7
:10647C00D0075CBF01221A600C4B1A68D1075CBFB5
:10648C0001221A600A4B1A68D2075CBF01221A60FB
:10649C00704700BF6CE7032068E7032064E7032024
:1064AC0060E703205CE7032058E7032054E7032050
:1064BC0050E70320244B1A68D0075CBF01221A60F6
:1064CC00224B1A68D1075CBF01221A60204B1A6854
:1064DC00D2075CBF01221A601E4B1A68D0075CBF42
:1064EC0001221A601C4B1A68D1075CBF01221A608A
:1064FC001A4B1A68D2075CBF01221A60184B1A6833
:10650C00D0075CBF01221A60164B1A68D1075CBF1A
:10651C0001221A60144B1A68D2075CBF01221A6060
:10652C00124B1A68D0075CBF01221A60104B1A6814
:10653C00D1075CBF01221A600E4B1A68D2075CBFF0
:10654C0001221A60704700BF9CE7032098E70320E4
:10655C0094E7032090E703208CE7032088E70320CF
:10656C0084E7032080E703207CE7032078E70320FF
:10657C0074E7032070E70320244B1A68D0075CBF34
:10658C0001221A60224B1A68D1075CBF01221A60E3
:10659C00204B1A68D2075CBF01221A601E4B1A6886
:1065AC00D0075CBF01221A601C4B1A68D1075CBF74
:1065BC0001221A601A4B1A68D2075CBF01221A60BA
:1065CC00184B1A68D0075CBF01221A60164B1A6868
:1065DC00D1075CBF01221A60144B1A68D2075CBF4A
:1065EC0001221A60124B1A68D0075CBF01221A6094
:1065FC00104B1A68D1075CBF01221A600E4B1A6847
:10660C00D2075CBF01221A60704700BFCCE70320A1
:10661C00C8E70320C4E70320C0E70320BCE703203E
:10662C00B8E70320B4E70320B0E70320ACE703206E
:10663C00A8E70320A4E70320A0E70320184B1A685F
:10664C00D1075CBF01221A60164B1A68D2075CBFD7
:10665C0001221A60144B1A68D0075CBF01221A6021
:10666C00124B1A68D1075CBF01221A60104B1A68D2
:10667C00D2075CBF01221A600E4B1A68D0075CBFB0
:10668C0001221A600C4B1A68D1075CBF01221A60F8
:10669C000A4B1A68D2075CBF01221A60704700BF10
:1066AC00ECE70320E8E70320E4E70320E0E703201E
:1066BC00DCE70320D8E70320D4E70320D0E703204E
:1066CC000A22002100F05EB910B5054C13462CB11E
:1066DC000A4601460220AFF3008010BD204610BDD3
:1066EC0000000000002910B591FBF2F402FB14131A
:1066FC0004DB002B07DA01349B1A04E0002BC4BF27
:10670C0004F1FF349B180460436010BD10B5431EA8
:10671C000A44914204D011F8014B03F8014FF8E7F9
:10672C0010BD884210B501EB020301D8421E0BE0EC
:10673C009842FBD28118D21AD34204D013F8014DDF
:10674C0001F8014DF8E710BD994204D011F8014B46
:10675C0002F8014FF8E710BD02440346934202D001
:10676C0003F8011BFAE7704738B5124B1C68A36B92
:10677C000546D3B91820FEF7A1FA43F20E33A063F5
:10678C0003804AF6CD33438041F2342383804EF2AA
:10679C006D63C3804DF6EC630381052343810B23AA
:1067AC00838101220023C0E90423A36B00221D6115
:1067BC005A6138BD68E2032010B502461346013217
:1067CC001C78002CFAD1013B11F8012B03F8012F96
:1067DC00002AF9D110BD10F8012B11F8013B012A48
:1067EC0028BF9A42F7D0D01A7047034611F8012BF4
:1067FC0003F8012B002AF9D170470000024B014627
:10680C00186800F003B800BF68E2032070B50646B4
:10681C0008460C4600F00DF8451C29463046FEF79C
:10682C006DFA064618B12A462146FFF76FFF30462F
:10683C0070BD034613F8012B002AFBD1181A01383E
:10684C007047F0B5037863B90B78002B18BF0020A4
:10685C00F0BD15F8012F62B114F8017F9742304654
:10686C00F7D00346461C007810B14D1E5C1EF0E7B5
:10687C00F0BD1846F0BD00002DE9F04780464048B9
:10688C00D0F800900F463D4615F8014B09EB04007B
:10689C00407800F0080000F0FF0608B12F46F2E740
:1068AC002D2C03D1BD1C7C78012603E02B2C04BFBE
:1068BC007C78BD1C13B1102B0AD15BE0302C57D166
:1068CC00287800F0DF0058284DD16C781023023561
:1068DC00002E14BF4FF0004C6FF0004C0027BCFB97
:1068EC00F3FA384603FB1ACC09EB040E9EF801E0D0
:1068FC001EF0040F01D0303C0BE01EF0030E1BD039
:10690C00BEF1010F0CBF4FF0370E4FF0570ECEEB10
:10691C000404A34210DDB7F1FF3F0AD0504506D85E
:10692C0001D1644503DC03FB0040012701E04FF07B
:10693C00FF3715F8014BD7E77B1C0CD1002E4FF01D
:10694C00220314BF4FF000406FF00040C8F8003035
:10695C002AB9BDE8F08706B1404272B107B1691E91
:10696C001160BDE8F0873024002BB1D10823AFE7CC
:10697C000A23ADE7302CA3D0AAE7BDE8F08700BF0F
:10698C0004E2032013460A46014602480068FFF75A
:10699C0073BF00BF68E203201D400D0059400D007D
:1069AC0085400D0089400D00000000007369005304
:1069BC00657474696E672073656E64496E74657274
:1069CC0076616C20746F3A20006C690053657474A6
:1069DC00696E67206C6F67496E74657276616C20A6
:1069EC00746F3A2000736D0053657474696E672080
:1069FC00737461747573496E74657276616C20740E
:106A0C006F3A2000556E6B6E6F776E2070617261FD
:106A1C006D657465722D200022002E0072657370F6
:106A2C006F6E7365207265636569766564002F68A7
:106A3C006F6F6B2D726573706F6E73652F5374610E
:106A4C00747573005374617274696E67005374616A
:106A5C007475732C6C693A002C73693A002C736D45
:106A6C003A005061796C6F61643A002C31303433E8
:106A7C002C00436F756E74657200746F74616C508A
:106A8C0061796C6F61643A2000536C65657000002D
:106A9C000000000000000000774D0D006D4D0D0052
:106AAC00634D0D00594D0D004D4D0D00414D0D0028
:106ABC00354D0D002D4D0D00234D0D00194D0D00C4
:106ACC00D1610D000000000000000000954D0D008C
:106ADC00974D0D00626175640053657269616C00BD
:106AEC0053657269616C3100747970650070617204
:106AFC00616D00636D6400696400686E640073749A
:106B0C00726D0066696C74006C766C00616464482C
:106B1C00616E646C65720072656D6F766548616E4E
:106B2C00646C657200656E756D48616E646C65723F
:106B3C0073004A534F4E53747265616D4C6F6748C6
:106B4C00616E646C65720061707000253031307557
:106B5C0020005D20002564002C200028293A20000C
:106B6C00205B00636F6465203D200025690064652F
:106B7C007461696C73203D20000D0A0066006C6E18
:106B8C0000666E00636F64650064657461696C0017
:106B9C006E6F6E6500747261636500696E666F007E
:106BAC007761726E006572726F720070616E6963EC
:106BBC0000616C6C005A00252B3033643A2530325E
:106BCC00750025592D256D2D25645425483A254DE4
:106BDC003A2553257A0061736374696D6500000072
:106BEC00000000000000000041560D0047560D004B
:106BFC008B560D0055560D0043560D00000000003D
:106C0C0000000000D95B0D00C95B0D00CB5B0D00D3
:106C1C000000000000000000B15C0D00015D0D00E3
:106C2C000F5D0D002D530D00ED5C0D00B35C0D00E0
:106C3C00C95C0D00FB5C0D00DF5C0D00AD5C0D0054
:106C4C0000000000000000001B5E0D00115E0D0036
:106C5C00075E0D00BD5D0D00FB5D0D00EF5D0D00D1
:106C6C00E35D0D00DB5D0D00D15D0D00C75D0D001A
:106C7C00D1610D000000000000000000555E0D0009
:106C8C00A55E0D00B35E0D002D530D00695E0D0069
:106C9C008B5E0D00775E0D009F5E0D00575E0D0044
:106CAC005B5E0D000000000000000000815F0D0025
:106CBC00CB5F0D00A35F0D00835F0D00AB5F0D007C
:106CCC00B35F0D00BB5F0D00C35F0D000000000043
:106CDC000000000063600D0059600D004F600D0056
:106CEC0045600D0039600D002D600D0021600D0018
:106CFC0019600D000F600D0005600D00D1610D00D5
:106D0C00000000000000000069610D0073610D00BF
:106D1C007D610D0087610D0091610D009D610D007D
:106D2C00A9610D00B5610D00BD610D00C7610D00BD
:106D3C00D1610D0000202020202020202020282898
:106D4C00282828202020202020202020202020201F
:106D5C00202020202088101010101010101010105F
:106D6C00101010101004040404040404040404108F
:106D7C00101010101010414141414141010101011D
:106D8C0001010101010101010101010101010101E7
:106D9C0010101010101042424242424202020202F3
:106DAC0002020202020202020202020202020202B7
:106DBC001010101020000000000000000000000067
:106DCC0000000000000000000000000000000000B7
:106DDC0000000000000000000000000000000000A7
:106DEC000000000000000000000000000000000097
:106DFC000000000000000000000000000000000087
:106E0C000000000000000000000000000000000076
:106E1C000000000000000000000000000000000066
:106E2C000000000000000000000000000000000056
:106E3C000000000000000000000000000000000046
:106E4C000000000000000000000000000000000036
:106E5C000000000000000000000000000000000026
:106E6C000000000000000000000000000000000016
:106E7C000000000000000000000000000000000006
:106E8C0000000000000000000000000000000000F6
:106E9C000000000000000000430000000D480D0041
:106EAC00814D0D00054E0D001D530D007D540D0040
:106EBC00F9540D0051550D00255E0D0019610D00A2
:106ECC009D620D00A5630D003D640D00C1640D00B5
:106EDC0085650D0049660D000000000000000000F3
:046EEC0000000000A2
:106EF00007000000050000000C000000A0050000D5
:106F0000E26B0D00406D0D0000000000446E0D00AE
:106F1000646E0D00846E0D00000000000000000093
:106F20000000000000000000A46E0D000000000042
:106F30000000000000000000000000000000000051
:106F40000000000000000000000000000000000041
:106F50000000000000000000000000000000000031
:0C6F6000000000000000000008E2032018
:106F6C00FFFFFFFF7A290100000001020304050660
:106F7C000708090A0B0C0D0E0F101112131415161D
:0C6F8C001718191A1B1C1D1E1F202800BE
:046F980078563412E1
:04000003D000401CCD
:00000001FF
